S01F00004A41515541525F4F4E4F46465F4452595F434F4E544143542E73333781
S21400000000100020511500004F1500004F1500008D
S214000010314E00004F1500004F1500004F15000030
S2140000204F1500004F1500004F150000F1E90000C5
S2140000304F150000B8D5020061EA00002DC600008A
S21400004039C60200418401004F1500004F1500001C
S214000050697C0100998401004D84010065840100DB
S214000060458401004F150000E51A00004F150000FA
S214000070E5140000D51400004F1500004F150000D1
S2140000804F1500004F150000051B0000151300005B
S214000090DD0E00006D0D00004F1500004F1500002E
S2140000A04F1500004F1500004F1500007DBF0000E3
S2140000B09D84010049840100956D01003D5D0000AE
S2140000C0D98401004F150000596D01004F1500003E
S2140000D04F1500004F1500004F1500004F1500008B
S2140000E04F1500004F1500004F1500004F1500007B
S2140000F04F1500004F1500004F15000010B5054CB9
S214000100237833B9044B13B10448AFF300800123BE
S214000110237010BD30150020000000002C270300BF
S21400012008B5034B1BB103490348AFF3008008BD75
S21400013000000000341500202C270300A3F5803AA9
S214000140704700BF174B002B08BF134B9D46FFF7A9
S214000150F5FF00218B460F461348144A121A00F08A
S21400016063F80E4B002B00D098470D4B002B00D0A9
S21400017098470020002104000D000D48002802D0FA
S2140001800C48AFF3008000F02BF82000290000F0A8
S214000190E3FD00F011F800BF0000080000000000BA
S2140001A00000000000100020301500201CB90020C0
S2140001B0000000000000000008B5074B044613B11D
S2140001C00021AFF30080054B1868836A03B1984797
S2140001D020462DF06DF900BF00000000F0D40200AC
S2140001E070B50D4D0D4C641BA4100026A64209D117
S2140001F00B4D0C4C2DF06AF9641BA4100026A64289
S21400020005D170BD55F8043B98470136EEE755F822
S214000210043B98470136F2E72815002028150020F1
S214000220281500202C15002002440346934200D1D6
S214000230704703F8011BF9E708B5034B18707220E6
S21400024006F0E0FE08BD00BFA810002010B5A2B062
S2140002504E4B1B68DC682FE09DF80C3063B3029BA6
S21400026053B304A99DF80D00984725E09DF8083083
S2140002704BB1052B15D0072B17D0082B1CD13020DF
S21400028006F0C0FE18E007F035F928B9322006F06F
S214000290B9FE06F06BFE0FE007F000F906F08AFDE7
S2140002A0F4E7742006F0AEFE06E0322006F0AAFE62
S2140002B002E0732006F0A6FE002201A920460CF0FC
S2140002C0A4FF012860D19DF80430C03B282B55D8E8
S2140002D001A252F823F000BF59020000B902000044
S2140002E07D0300006D020000B3020000B9020000AA
S2140002F0B90200007D0300007D0300007D030000BE
S2140003007D0300007D0300007D0300007D030000E8
S2140003107D0300007D0300007D0300007D030000D8
S2140003207D0300007D0300007D0300007D030000C8
S2140003307D0300007D0300007D0300007D030000B8
S2140003407D0300007D030000B9020000B902000032
S2140003507D0300007D0300007D0300007D03000098
S2140003607D0300007D0300007D0300007D03000088
S2140003707D0300007D030000B902000040F29F21CB
S214000380034824F03DFE97E722B010BDB4150020C8
S214000390F4D4020010B5B8B0104B1B685C6804E0DB
S2140003A007F08EF8694605F066FE0022694620468C
S2140003B00CF02BFF01280ED19DF80030802BEFD0DB
S2140003C003D37E33DBB2022BEFD94FF40871044817
S2140003D024F016FEE9E738B010BD00BFB4150020C3
S2140003E0F4D4020010B582B0002300930B4B0C4AE5
S2140003F0012105200CF07FFD01460A4B18600A4CCF
S21400040003230A4A1268204624F087FB204606F09B
S214000410F3FD06F01FFE02B010BD00BFC815002099
S2140004209C150020C4150020B8150020A415002037
S21400043008B501230BF0FAFC08BD000008B5084B10
S2140004401A78531EDBB2072B01D8012A03D0044BBF
S21400045000221A7008BD482006F0E8FDF7E700BF46
S2140004608C15002000B583B00021084605F09CFCE2
S2140004700BF0ACFD174B00221A7017480AF036FC3A
S214000480164805F0A7FE0DF1070024F089FE9DF83A
S214000490070007F06DF898B19DF80720104B1A7208
S2140004A008221049104805F0C1FF104B0222012116
S2140004B00F481FF0ABF938B1002003B05DF804FB1D
S2140004C00C4824F077FEEBE74FF448710A4824F016
S2140004D097FDF1E7A8100020310400001C1600204C
S2140004E064100020B0100020AC10002028D50200B8
S2140004F0D50900006C100020F4D40200C378012B4C
S21400050000D0704700B58BB044238DF8043000202F
S21400051029F0E4FD084B1B684FF4FA7201A99868AD
S21400052024F0FFFA10B90BB05DF804FB40F25D5101
S214000530024824F065FDF6E7B4150020F4D4020066
S214000540014B1878704700BF1816002008B5FFF753
S214000550F7FF08BD0020704708B5034B187032211E
S214000560024824F00BFB08BD8C1500204C1500201B
S214000570012A01D90120704708B5472006F056FD2C
S2140005800120FFF7E9FF012008BD0020704708B5ED
S214000590FFF7D6FF08BD08B5FFF7D8FF08BD08B5BA
S2140005A0FFF7D8FF08BD000010B504460B4B1B68CC
S2140005B043B1092322460021084800682AF00EF8B5
S2140005C030B910BD40F2A561054824F019FDF0E7EA
S2140005D04FF4D561024824F013FDF2E71C16002004
S2140005E0F4D4020010B582B0184C2168012008F03F
S2140005F0C1F8174900230B70164A13704B705370DE
S2140006008B709370CB70D3700B71137153719371A1
S214000610D3711372104A13600B6006F0D9FE29F0EE
S214000620CDFC019004230DEB03024FF4A2212068B9
S21400063029F0D4FF20B90748FFF7B6FF02B010BD77
S2140006404FF4BE61054824F0DBFCF4E71C160020DE
S214000650481800203417002050180020F4D4020058
S21400066008B50B4B1B683BB1094B18682AF00AF813
S21400067040B9FFF7B7FF08BD40F21F61054824F0F8
S214000680BFFCF1E740F22261024824F0B9FCF0E733
S2140006901C160020F4D4020010B584B00446244B87
S2140006A01B68A3B3092301AA00212148006829F08A
S2140006B03DFF90BB9DF804201E4B1A709DF8052048
S2140006C05A709DF806209A709DF80720DA709DF8FB
S2140006D008201A719DF809C0174B83F800C09DF8D2
S2140006E00A0058709DF80B1099709DF80C20DA706F
S2140006F0124B83F800C058709970DA7001AB03CBC8
S214000700206061601B782372204604B010BD40F262
S21400071074610B4824F074FCC4E7FFF763FF0923F9
S21400072001AA00210248006829F000FFE6E700BFA2
S2140007301C160020481800205018002044180020DE
S214000740F4D4020010B586B0042305AA4FF4A22103
S2140007500E48006829F0EAFEA0B929F02FFC0C4CE0
S2140007606846FFF799FF009A019B226063609DF838
S21400077008302372054B1968002007F0FBFF0120A4
S21400078006B010BDFFF76CFF0020F9E71C1600202E
S2140007903417002008B5FFF7D5FF07F07FF90021D2
S2140007A0044806F03BFB042005F0EEFC702006F043
S2140007B029FC08BDA011002010B504467A2809D0EF
S2140007C0302807D0444B1B78032B31D8DFE803F0E2
S2140007D0081B487C0320FFF72FFD09F083F9F1E79B
S2140007E0732C0AD0712C0BD001220021084609F088
S2140007F0E9FC0120FFF720FD1AE0FFF731FFF1E7E3
S214000800FFF7C8FF14E0732C13D0792C01D0312CDD
S2140008100AD1324B1B689B691B787BB1032005F01D
S214000820B3FC0220FFF708FD482C0BD0782C13D021
S21400083010BDFFF715FFFFF785FFE6E7012005F07F
S214000840A3FCEEE7264A1378013313704FF4FA71CF
S214000850244824F093F9E9E7002005F0A6FCE7E732
S214000860732C14D0792C17D0332C15D0322CDFD122
S214000870042005F089FC0120FFF7DEFC0BF078FB76
S214000880F8B101221849194806F048FCD0E7FFF7EE
S214000890E7FEFFF757FFE5E7002005F075FC0420AC
S2140008A005F072FC0120FFF7C7FC0BF061FB28B1D6
S2140008B001220D490D4806F031FCD7E70AF008FA88
S2140008C0F6E70AF005FADCE7732CB1D1FFF7C8FEAD
S2140008D029F048FBACE700BFA8100020B4150020A4
S2140008E0201600202416002070100020DDA900002D
S2140008F000B583B003E09DF80700FFF75DFF002218
S2140009000DF10701044B18680CF07FFC0128F2D0AB
S21400091003B05DF804FB00BFC415002008B100203A
S214000920704740F20240704700B583B06B4683E8DC
S214000930030093E8030008F029FA03B05DF804FB0F
S2140009407047000010B40246044C23460068516805
S214000950926807C320465DF8044B70479015002048
S21400096008B5FFF7EFFF08BD0023038002230B80C6
S214000970704700002DE9F04180460F4616461D469A
S21400098029F002FB04461F2809D8012388F8003006
S2140009903B703470284629F0F9FA002306E040F24E
S2140009A0FB61044824F02CFBEFE70133A342FCD3A1
S2140009B0BDE8F081F4D40200FE20704708B5034A73
S2140009C00021034805F000FA08BD00BF3D04000002
S2140009D04C15002038B50446012029F07FFB0DF0A9
S2140009E03FFB184D2860184B1C6005F015FA0023D5
S2140009F0164A2146286806F0B3FCFFF7F3FC712080
S214000A0006F000FB0BF0B5F80BF00AFA00200BF02E
S214000A1099FAFFF7D3FF00F003F9002211461046BB
S214000A200AF070FD00230A4A04210A4823F0F4FF66
S214000A3000224FF0FF31074823F0FDFFB0F1FF3FE3
S214000A40F6D138BDA4150020B415002028D5020024
S214000A503CD50200A81500204B78042B2CD030B5CE
S214000A60AFB005460C46052B2AD105F0A5FE08B109
S214000A70022026E0AA22002103A8FFF7D5FB69463C
S214000A80284605F065FE70238DF80C3006238DF899
S214000A900D30A0788DF80E0001238DF80F30FFF78B
S214000AA08BFF8DF810000023009A052103A805F09F
S214000AB0F3FD18B9022004E0FF207047FF2000E095
S214000AC000202FB030BD7047154B1B78B3B1154BC7
S214000AD00822DA60124B5B78A3B1124B4022DA662A
S214000AE00F4B9B7893B10F4B0822C3F8FC200C4B9E
S214000AF0DB7883B10B4B8022DA6670470A4B0822FC
S214000B00DA60E7E7084B4022DA66E9E7064B082298
S214000B10C3F8FC20EBE7044B8022DA66704700BF80
S214000B205018002000A0004600A0004408B5124B54
S214000B301B78C3B9114B1B78092B08D90A2B1AD17D
S214000B400F4824F070F80D4B00221A7013E00D4A7F
S214000B50042191610133094A13704FF4FA71084871
S214000B6024F00CF807E0084B4FF40042C3F89C2032
S214000B70014B00221A7008BDE8160020301700202E
S214000B806816002000A0004000A0004408B5134BE3
S214000B901B78012B0BD0114B1B78042B11D00F4B5D
S214000BA01B78072B15D80D4B00221A7008BD0C4B6E
S214000BB001221A7000F07CFA64210A4823F0DEFF56
S214000BC0E9E7792006F032FA6421064823F0D6FFDA
S214000BD0E5E77A2006F02AFAE5E700BF20160020AF
S214000BE0411800206816002008B50B4BD3F8B8351E
S214000BF00A4A12689A420AD0074BD3F8B815074A31
S214000C001160D3F8B8351BB9472006F00FFA08BDB7
S214000C10482006F00BFAFAE700101442EC16002003
S214000C2030B583B001213C4801F0BCF80123032213
S214000C300E21104602F006FE002304220F21032098
S214000C4002F000FE002304220221184602F0FAFDFC
S214000C50002304220321184602F0F4FD0023042298
S214000C600621022002F0EEFD0023042203210520C7
S214000C7002F0E8FD002304220721022002F0E2FD34
S214000C800124264B1C61264AD2F81C341B0C1B047C
S214000C9024490B60C2F82434234D244A00212846F8
S214000CA005F092F8224A0021224805F08DF8224AE3
S214000CB00021224805F088F800F0ECFE204BA02228
S214000CC083F8122383F80A2300F0ACF8019400940A
S214000CD023460E221146032002F036FD19490E2047
S214000CE000F0F0FE184B4FF40042C3F89C20174B60
S214000CF01C7041F28831284623F040FF144C154AF8
S214000D000021204605F060F84FF4FA71204623F0E3
S214000D1035FF002003B030BD00350A0000300E401D
S214000D2000A0004064160020681600202D0B00006E
S214000D308D0B000024160020B1100000F0160020D5
S214000D4000E100E0E90B000000A00046E8160020E5
S214000D50A8160020C90A000008B505F015F8FFF728
S214000D60B2FE05F01DF8002008BD0000054B1A6C09
S214000D709A64054B4FF48062DA664FF40072DA66C6
S214000D80704700BF0004014000A0004438B5054687
S214000D90084B4FF48062DA664FF40072DA6600247D
S214000DA004E0295D044803F030F90134072CF8DD2F
S214000DB038BD00BF00A000460004014030B589B031
S214000DC00121154800F0EEFF144D4FF6FF73EB615E
S214000DD0002405940694079402238DF81A3005AA79
S214000DE02146284603F024F80194029403948DF8D3
S214000DF0104001238DF804308DF8063001A92846EE
S214000E0002F0CCFFAB6943F01003AB61044B4FF428
S214000E1000221A6009B030BD0012040000840140B0
S214000E2000E100E010B588B00121274800F0BAFFC5
S214000E300DF1040C254C0FCCACE80F0094E807002D
S214000E408CE807004FF41653039300230122082171
S214000E50022002F0F7FC012304220B21022002F0FC
S214000E60F1FC002304220921022002F0EBFC0023FF
S214000E7004220A21022002F0E5FC154B4FF48062A2
S214000E80DA664FF40072DA66124C01A9204603F0C7
S214000E9075F841F20C03A367636F43F003036367BF
S214000EA0E36C43F00403E364E36C43F00103E364A0
S214000EB0094B4FF480121A604FF400121A60FFF7C5
S214000EC07DFF08B010BD00BF004204004CD50200F4
S214000ED000A000440004014000E100E008B5084816
S214000EE0036C8364074B01225A625A6003F086F84B
S214000EF0054A1378591C1170044AD05408BD00BF27
S214000F0000040140008401404018002040170020E3
S214000F1000B586464FF0000C4FF6FF7010E0400814
S214000F200133DBB2072B07D810F0010FF7D04AF2D7
S214000F30010282EA5000F3E70CF1010C5FFA8CFC28
S214000F408C4504D21EF80C3058400023EAE75DF8C2
S214000F5004FB000010B588B084460C46494B079346
S214000F60494B0693494B5A788DF814209A788DF899
S214000F701520DA788DF816201B798DF817300DF1CC
S214000F80040E434B0FCB8EE80F00BCF1FF0F2DD0A5
S214000F900023032B32DC03F120026A4412F80C2CE7
S214000FA062452DD00133F4E70133032B20DC394AA8
S214000FB0D25C002AF8D003F120020DEB020111F8F2
S214000FC0082C11F8041C02EB420212010120884092
S214000FD03149885000223149CA5408A901EB8301DF
S214000FE051F81C1C0A702B49CA54DDE70023DCE7C5
S214000FF02B4B00221A702B48FFF7D6FA08B010BD0C
S214001000294A127832B1FF2C04D0012C14BF0024D8
S214001010012403E01F4AD45C84F001041D4AD25C1C
S214001020A242EBD0F4B103F120020DEB020111F85D
S214001030082C11F8041C02EB420212010120884021
S2140010401A498850154AD45408AA02EB830252F86B
S2140010501C2C14700F4AD454114B1C701148FFF707
S214001060A3FACBE703F120020DEB020111F8082CDE
S21400107011F8041C02EB42021201012088400649C6
S2140010808850DFE703060307000205024818002021
S21400109068D50200441800200CA000445018002018
S2140010A04D18002034170020431800200CA00046DE
S2140010B010B582B0244B1B7813B1244B1B785BB958
S2140010C00021224B1970204B1970214B1A782148A9
S2140010D0FFF7AAF802B010BD1F4C22781F4B1A70FB
S2140010E01F48027062785A704270A2789A708270B6
S2140010F0E278DA70C27022791A710271FFF754FA38
S21400110023788DF8003046238DF801308DF80230B4
S2140011108DF803308DF804308DF8053000238DF8F7
S21400112006308DF8073006216846FFF7F1FE8DF889
S2140011300600000A8DF807006846FFF727FE0948F4
S21400114023F071FDBCE700BF4118002042180020C4
S214001150401800204017002054180020481800208F
S21400116034170020F016002038B5624B1C78624B0E
S2140011701B789C4209D09C4244D05E4B5B78452B42
S21400118063D0462B00F0828038BD5A4A5578032D2E
S214001190F1D1D278022AEED1564C06212046FFF72E
S2140011A0B7FEC3B2C0F30720A2799A42ECD1E37926
S2140011B08342E9D1514B00221A706379012B13D078
S2140011C0022B13D0042B00D01546082B10D0102B62
S2140011D010D0202B10D0402B10D0802B10D0FF2109
S2140011E02846FFF7B7FECFE71A46E9E71A46E9E7CB
S2140011F00425ECE70525ECE70625ECE70725ECE7F4
S2140012000825ECE73B4B5B78472BB6D1394B5B792F
S214001210472BB2D1374C06212046FFF779FEC3B2E2
S214001220C0F30720A2799A42AED1E3798342ABD1CC
S214001230324B01221A70E0782179002300E0013356
S214001240072BFCDDFFF786FE9EE72A4D0621284683
S214001250FFF75EFEC3B2C0F30720AA799A4293D185
S214001260EB79834290D1264B1C70A9785970E978A7
S21400127099702979D9706A791A71224B01221A70ED
S2140012804EF66021204823F079FC7DE7194B9B78C9
S214001290462B7FF479AF174BDB78462B7FF474AF81
S2140012A0144B1B79462B7FF46FAF124B5B79002BE8
S2140012B03FF46AAF0F4C06212046FFF729FEC3B263
S2140012C0C0F30720A2799A427FF45EAFE3798342A7
S2140012D07FF45AAF0C4823F0A6FC0C4B1A7800217A
S2140012E02046FEF7A1FF0023064A1370084A137033
S2140012F04AE700BF40170020481800204318002087
S2140013005418002042180020F01600204018002034
S2140013104118002008B5054BDA685A6102225A6067
S214001320FFF722FF024B00221A7008BD008401401E
S2140013304018002008B500F0EAF808BD08B50421FA
S214001340112001F04DFA0121084800F02BFD032181
S214001350074801F045FA0321064801F041FA032147
S214001360054801F03DFA002008BD00BF30253E00CC
S21400137002001E00030020000500240000B583B014
S214001380214B01225A641A6842F480721A6001A83E
S21400139002F0E6FC9DF80530012B2FD91B4B4FF4CD
S2140013A01872C3F88C221A4AC3F89022194AC3F856
S2140013B0F022194AC3F8F822184AD2F8A43143F4A6
S2140013C0F843C2F8A43102F0A9FF00F0B3F802F027
S2140013D041FF02F069FFFFF7B1FF02F04DFF00F09A
S2140013E09FF800F08FF900F09DFB0BF02BF928F02A
S2140013F0F9FC03F047FE03B05DF804FB9DF80430EB
S214001400022BD9D9CAE700BF00000E4000400E40AC
S2140014109A6F0500180100040084320800300E4060
S21400142008B50BF03FF908BD08B500F0A7FA00F0C4
S21400143031FB00F087F808BD08B502F001FF28F080
S214001440DFFC08BD704708B500F040F808BD08B5D9
S21400145000F059F804F09EF90AF08EFE03F0D4FB73
S214001460FFF7F1FF08BD000010B592B0144C0DF167
S2140014702C0CA646BEE80F00ACE80F009EE807005E
S2140014808CE807000DF1180C04F11C0EBEE80F00E6
S214001490ACE80F00DEF80030CCF800300DF1080C98
S2140014A004F130030FCB8CE80F00064B009306AB1D
S2140014B00BAA6146044803F093FA12B010BD00BFB1
S2140014C078D502005C180020BC19002008B5FFF78C
S2140014D0CBFF08BD08B5024B186803F047FB08BDF4
S2140014E0BC19002008B5024B186803F03FFB08BD86
S2140014F0BC19002008B5012304220521002002F0B3
S214001500A1F9002008BD08B5FFF7F4FF08BD08B52F
S214001510002304220521184602F094F9002008BD95
S21400152008B50121024800F03DFCFFF703FF08BDA7
S21400153000350A0008B50121014800F033FC08BD5B
S21400154000350A0008B5082000F072FA08BDFEE76C
S21400155008B500F087F8124A0AE01068516850F89B
S214001560230041F82300013391688B42F5D30C32F7
S2140015700C4B9A4201D20023F6E70B4A08E01168AA
S214001580002041F82300013351688B42F7D308321C
S214001590064B9A4201D20023F6E7FEF7D3FD00BFC2
S2140015A0382A0300442A0300442A0300442A03007E
S2140015B000487047C0175302114BD3F8943003F01D
S2140015C00703023B032B0DD8DFE803F0050F0208E4
S2140015D00C4B18680BE00C4B186808E00B4B1868AF
S2140015E0400804E0094B186801E04FF40040044B43
S2140015F0D3F80031C3F304230133B0FBF3F0704794
S21400160000400E40C4110020BC110020C011002074
S21400161008B5FFF7D1FF054BD3F80831C3F308230D
S2140016200133B0FBF3F0024B186008BD00400E40DB
S214001630B8110020014B1868704700BFBC1100208D
S21400164008B5064B1860064BD3F8943003F0070332
S214001650022B00D008BDFFF7DBFFFBE7BC11002024
S21400166000400E40044B054A9A60D3F8882042F4A6
S2140016707002C3F88820704700ED00E0000000000C
S2140016804FF4004070474FF47A707047014B18686B
S214001690704700BFC4110020174B9A6A02F17043CE
S2140016A003F5F813B3F5006F11D2134BD3F82818CF
S2140016B0A1F17E63A3F58433B3F5605F07D21268A9
S2140016C00E4B9A4207D000230370836070470023B6
S2140016D00370836070470A68094B9A42F3D101236E
S2140016E00370054BD3F8282892684260D3F8283850
S2140016F09B698360704700BF0000E10FAD1007B024
S21400170007B0CD5E08B50D4BD3F82828A2F17E634E
S214001710A3F58433B3F5605F0DD2094B1B781BB17C
S214001720022B01D0002008E0D369984728B9044B63
S21400173001221A7001E04FF4817008BD0000E10F2D
S214001740E41900204FF0005340F202221A804FF2B4
S2140017500F025A800A4A01239360136823F4E06359
S21400176043F480631360BFF34F8F0649CA6802F4E0
S214001770E062054B1343CB60BFF34F8F00BFFDE71E
S21400178000500E4000ED00E00400FA0508B50D4BD1
S214001790D3F82828A2F17E63A3F58433B3F5605FFF
S2140017A00AD2126BA2F17E63A3F58433B3F5605FB1
S2140017B005D29368984701E04FF4817008BD4FF456
S2140017C08170FBE70000E10F08B50D4BD3F8282821
S2140017D0A2F17E63A3F58433B3F5605F0AD2126B81
S2140017E0A2F17E63A3F58433B3F5605F05D2536937
S2140017F0984701E04FF4817008BD4FF48170FBE715
S2140018000000E10F10B50A4BD3F82848A4F17E6318
S214001810A3F58433B3F5605F04D2236B2BB15B6A08
S214001820984701E04FF4017010BD4FF40170FBE7DC
S2140018300000E10F08B50D4BD3F82828A2F17E630F
S214001840A3F58433B3F5605F0AD2126BA2F17E6310
S214001850A3F58433B3F5605F05D2936A984701E039
S2140018604FF4017008BD4FF40170FBE70000E10F74
S21400187030B5E1B0124BD3F82838A3F17E63A3F558
S2140018808433B3F5605F15D20C464FF4C0726946D8
S214001890FFF7B8FF054678B921466846FFF7CAFF46
S2140018A040F201239842F7D040F20323984203D037
S2140018B0054601E04FF40175284661B030BD00BF13
S2140018C00000E10F10B50D4BD3F82848A4F17E6355
S2140018D0A3F58433B3F5605F0AD2246BA4F17E636C
S2140018E0A3F58433B3F5605F05D2A36B984701E098
S2140018F040F2011010BD40F20110FBE70000E10FBE
S21400190008B50D4BD3F82828A2F17E63A3F58433DF
S214001910B3F5605F0AD2126BA2F17E63A3F584333F
S214001920B3F5605F05D2D36B984701E040F2011033
S21400193008BD40F20110FBE70000E10F0023036042
S214001940704703680B600160704710B514460CF0D2
S21400195079FB2060002010BD0346064A1068034449
S214001960054A934202D8034A136070474FF0FF308F
S214001970704700BFC81100200000012008B50121F3
S214001980224800F00FFA012304220221052001F06C
S21400199059FF002001F0CCFE01211D4BC3F81018A2
S2140019A00A46042000F08CFE1A4800F007FD1A4B89
S2140019B0D3F8F02042F00102C3F8F020D3F8FC2060
S2140019C042F08072C3F8FC20A3F55D43134A1A6008
S2140019D000F5D52000F2FC40C008114BA3FB0030F8
S2140019E0800A01380F4B18610222C3F8F0204FF42A
S2140019F08072C3F804234FF060430B4AC3F8B02F3D
S214001A000A4AC3F8802E002008BD00BF00350A0031
S214001A100080144206000E0000ED00E0FF030040C8
S214001A2017916502000004E055CEACC50900010020
S214001A304FF06041D1F8003E012282401343C1F8C6
S214001A40003E00207047000010B5044602E020204B
S214001A5007E09047DCB194FAA4F00028F7D0B0FA7B
S214001A6080F00123834024EA0304094B03EB0013B0
S214001A705A68002AEED0064B03EB00131B7B002BA4
S214001A80E7D0034B03EB001399689047E2E710BDDD
S214001A90E819002008B5122000F0F4FF28B1084B22
S214001AA04FF48022C3F880211A600A2000F0EAFF73
S214001AB028B1034B4FF48062C3F880211A6008BD3A
S214001AC000E100E038B505460C4600F0C8FF044BC0
S214001AD003EB05135C6000221A7300F0C6FF38BDE6
S214001AE0E819002008B5064BD3F82804D3F81C24C0
S214001AF0104000F05530C3F82404FFF7A5FF08BDDA
S214001B0000A0004008B5064BD3F82804D3F81C24E0
S214001B10104000F0AA30C3F82404FFF795FF08BD74
S214001B2000A0004008B5034B1968034B18680EF078
S214001B30A1FD08BDD0110020CC110020B0F1FF3F60
S214001B4001D010B97047024870470248704700BF7E
S214001B5021E000F024E000F08908002301E00430D2
S214001B6001338B4205D20268B2F1FF3FF7D0002066
S214001B707047012070477047F8B505460E4694003A
S214001B80224602F053F8FFF7D9FF074628B9224647
S214001B90314628462AF0ACFF08B93846F8BD014F52
S214001BA0FBE700BF10E000F008B50346084613F058
S214001BB0030F02D111F0030F0AD0920019462AF043
S214001BC0A7FF002008BD53F8041B40F8041B013A89
S214001BD0002AF8D1F5E7000038B5044601F0C8FF42
S214001BE0FFF7ACFF054660B9084BD3F8E4301B0E90
S214001BF00A3303F01F03012199402046FFF7ACFF8C
S214001C0008B1284638BD024DFBE700BF0081E00F53
S214001C100EE000F010B582B0044601A802F0A0F86D
S214001C209DF8063023800122E270A270064BD3F89E
S214001C30E4301B0E0A3303F01F0302FA03F363605B
S214001C40002002B010BD00BF0081E00F08B501F013
S214001C50E7FE08BD08B501F0D3FE002008BD000071
S214001C6008B500F0F5FE014B186008BD581F0020AF
S214001C7008B5024B186800F0EFFE08BD581F00209C
S214001C8008B50A464118013903F04CF808BD0000B3
S214001C900C4B984205D90C4B984210D801210A46A5
S214001CA001E000210A46094B1A64094AD2F80031BD
S214001CB023F0807343EA0163C2F8003170470221C3
S214001CC00122F0E70048E8010090D0030000C84376
S214001CD000400E40014B1868704700BFF01100200E
S214001CE0114B5B68002300E00133042B0CD80F4A2D
S214001CF002EBC30292F804C0CAB29445F4D10B4A70
S214001D0052F833208242EFD3052B0BD0074A02EB62
S214001D10C3035979044A536823F0407343EA0163C6
S214001D20536070470321F5E700000E402CD60200F2
S214001D3003300F2828BF0F200007704708B5FFF7AD
S214001D403BFC044BD3F80031C3F3042303FB000031
S214001D5008BD00BF00400E4038B5084B1C6CA4B24E
S214001D6041F671351D64FFF723FC0021FFF7B8FF2D
S214001D70AC4202D0014B00221A6438BD00000E406F
S214001D8038B5074B1C6CA4B241F671351D64FFF7DD
S214001D90A7FFAC4202D0024B00221A6438BD00BF37
S214001DA000000E4010B4C0F30323013B092B21D8DA
S214001DB0DFE803F00508202030232620292D002404
S214001DC0164A01E00024164AC0F3043054B1134BFF
S214001DD0D3F8443113F0010F04D1104BD3F840313F
S214001DE01C42FAD102F1424303F5801300EBC30014
S214001DF0800001605DF8044B70470124094AE3E760
S214001E001024094AE0E74FF48034084ADCE700244F
S214001E10074AD9E70024074AD6E700BF00400E402D
S214001E20C0400E40E0400E40E8400E40F0400E40FD
S214001E3050410E40B0400E40C0F30313013B092B47
S214001E406BD8DFE803F0050B111B6A6A2127415F98
S214001E50334BD3F80001C0F304207047304BD3F85F
S214001E601401C0F3042070472D4BD3F80001C0F3D3
S214001E700060431C0120984001387047284BD3F877
S214001E800C01C0F308207047254BD3F80801C0F3B7
S214001E9008207047234B984204D0234B98420AD020
S214001EA0002070471E4BD3F8203103F00F030120AB
S214001EB09840013870471A4BD3F82031C3F301130A
S214001EC00120984001387047184B984207D003F518
S214001ED0B01303F5805398420AD000207047104B89
S214001EE0D3F82831C3F30113012098400138704716
S214001EF00B4BD3F82801C0F30120031D01209840A6
S214001F00013870470A4B984201D000207047044BB6
S214001F10D3F8300100F0030070470020704700BF80
S214001F2000400E408006160080162E0090171A00FD
S214001F30A009140008B5FFF77FFF013008BD0000B8
S214001F4010B50C46C0F30313013B092B2FD8DFE86E
S214001F5013F00A002F0039004A002E002E0056000B
S214001F607600CF001501FFF7F7FE9148FFF790FEC9
S214001F70904BD3F8001121F4F85141EA0421C3F83C
S214001F800011FFF745FB8C4BDB6B13F0400F04D1C1
S214001F908A4BD3F8C830002BFAD1874B5968C1F367
S214001FA00141FFF7EDFEFFF707FBFFF771FE10BDDF
S214001FB0804BD3F8141121F4F85141EA0421C3F8F8
S214001FC01411F4E769B1B1FA81F1C1F11F04794B3C
S214001FD0D3F8001121F0807141EA0461C3F80011C2
S214001FE0E5E72021F1E7734BD3F80C1121F4FF311C
S214001FF021F4807141EA0421C3F80C11D7E7FFF7FA
S214002000ABFE6C4BD3F8081121F4FF3121F480713C
S21400201041EA0421C3F80811FFF7FAFA664BDB6BB6
S21400202013F0400F04D1654BD3F8C830002BFAD11B
S214002030614B5968C1F30141FFF7A2FEB7E7604B59
S21400204098421AD05F4B984234D05F4B9842AED13C
S214002050584BD3F8443113F0010F05D1554BD3F844
S214002060403113F4802FF9D1524BD3F8301121F0C0
S21400207003012143C3F8301199E7013118D0B1FAB2
S21400208081F3C3F11F024B4BD3F8443113F0010F19
S21400209005D1484BD3F8403113F0040FF9D1454928
S2140020A0D1F8203123F00F031343C1F820317EE727
S2140020B02023E6E7013119D0B1FA81F3C3F11F02FC
S2140020C03C4BD3F8443113F0010F05D1394BD3F80C
S2140020D0403113F0040FF9D13649D1F8203123F0FE
S2140020E0300343EA0213C1F8203160E72023E5E716
S2140020F0364B984222D003F5B01303F5805398422E
S2140021007FF455AF013137D0B1FA81F3C3F11B022A
S214002110284BD3F8443113F0010F05D1254BD3F8E3
S214002120403113F0400FF9D12249D1F8283123F479
S214002130407343EA0223C1F8283138E7013119D049
S214002140B1FA81F3C3F11F021A4BD3F8443113F0EE
S214002150010F05D1174BD3F8403113F0400FF9D1DA
S2140021601449D1F8283123F0300343EA0213C1F8AA
S21400217028311CE72023E5E72023C7E7124B9842C7
S2140021807FF415AF0B4BD3F8443113F0010F05D194
S214002190084BD3F8403113F4802FF9D1054BD3F810
S2140021A0301121F003012143C3F83011FFE600BFD0
S2140021B00148E80100400E4000300E400000C643D3
S2140021C08006160080162E00A009140090171A002C
S2140021D000F00F000138072865D8DFE800F0041B80
S2140021E02A643E4D64553B4BD3F8943003F0070306
S2140021F0023B052B0CD8DFE803F0055803070B0954
S21400220002207047042070470B2070470C20704750
S214002210052070472F4BD3F8803003F00703022BBE
S21400222045D0042B45D0012B01D001207047032058
S2140022307047284BD3F8843003F00703013B032B89
S21400224009D8DFE803F002380604032070470A20A6
S214002250704706207047012070471E4BD3F8883021
S21400226003F00703022B28D0042B28D0012B01D023
S2140022700120704703207047164B1B6F13F00103B5
S2140022801FD003B309207047124BD3F85C3103F01C
S2140022903003202B19D0302B19D0102B01D0012061
S2140022A070470720704700207047032070470220C1
S2140022B070470A20704702207047022070470A20A5
S2140022C07047072070470120704704207047082099
S2140022D0704700BF00400E4010B50446FFF778FF79
S2140022E01B4B9C4212D01B4B9C4215D01A4B9C4257
S2140022F006D00138032828D8DFE800F014171D1A86
S214002300164BD3F8800000F00700F2E7134BD3F823
S214002310840000F00700ECE7104BD3F8880000F0CC
S2140023200700E6E7FFF7ACF910BDFFF7AFF9FBE7EC
S214002330FFF7A9F9F8E7FFF73FF9084BD3F80031A4
S214002340C3F300630133D840EEE70020ECE700BF9C
S214002350030020000500240002001E0000400E407E
S21400236008B50748FFF734FF072804D0092805D129
S214002370FFF722F903E0FFF7ADFC00E0002008BD00
S21400238006000E0008B10020704710B504460A4843
S214002390FFF71EFF072805D0082809D0042804D018
S2140023A0204610BDFFF796FCFBE7FFF743F9F8E77A
S2140023B0FFF7C4FCF5E700BFB800320038B500F4FC
S2140023C07813B3F5B01F00F0938005463BD8B3F5FD
S2140023D0402F00F0828010D9B3F5801F00F0AA804D
S2140023E0B3F5A01F27D15748FFF776FF564BD3F813
S2140023F0303103F00303D8401CE0B3F5802F61D0E2
S21400240005D9B3F5202F14D1FFF7D6F812E0002B2C
S21400241055D0B3F5003F0AD1FFF7CEF84A4BD3F8B4
S2140024200831C3F308230133B0FBF3F002E00020C9
S21400243000E0002038BDB3F5602F02D1FFF790FF13
S214002440F8E70020F6E7B3F5381F5BD00ED9B3F5F2
S214002450481F72D0B3F5781F21D1FFF7ADF80446B8
S2140024602846FFF767FDB4FBF0F0E3E7B3F5001F7F
S21400247052D006D9B3F5101F0FD13248FFF72CFF04
S214002480D8E7B3F5D01F4BD0B3F5F01F03D12F48D4
S214002490FFF722FFCEE70020CCE70020CAE7B3F51F
S2140024A0401F0AD12A48FFF717FF274BD3F82831D9
S2140024B0C3F301230433D840BCE70020BAE7FFF794
S2140024C07BF8B7E7FFF778F81F4BD3F80C31C3F368
S2140024D008230133B0FBF3F0ACE7FFF76DF81A4BB7
S2140024E0D3F81431C3F304230133B0FBF3F0A1E7B0
S2140024F01648FFF7F1FE144BD3F8203103F00F0314
S214002500D84097E71148FFF7E7FE0F4BD3F8203186
S214002510C3F30113D8408DE70D48FFF7DDFE89E7CA
S2140025200B48FFF7D9FE084BD3F82831C3F3011345
S214002530D8407FE7FFF7CEFB7CE70020FFF722FFBF
S21400254078E700BF0500240000400E4002001E0091
S21400255003002000014B1868704700BFC011002020
S2140025600138032818D8DFE800F00211070C0B4BDF
S214002570186AC0F308007047084B186900F07F001F
S2140025807047064B986900F07F007047034BD3F8FE
S2140025909C00C0F30A0070470020704700400E40C1
S2140025A038B50C460138032812D8DFE800F0022EB2
S2140025B01220C1F308041F4BD3F86838002BFAD159
S2140025C01D4A136A23F4FF7323F0010323431362A7
S2140025D038BD01F07F04174BD3F86038002BFAD1D2
S2140025E0154A136923F07F031C431461F0E701F0DA
S2140025F07F04104BD3F86438002BFAD10E4A936947
S21400260023F07F031C439461E2E70B4DD5F890302E
S2140026106B6A23F0300343F010036B62C1F3C31000
S214002620FFF786FB2A6B054B1340234303432B63BC
S214002630CEE700BF0020C84300400E4000F8FF0F62
S214002640134B5B6A13F0300F09D0202914D03029C1
S21400265015D009B10F4A04E04FF4400201E04FF4F0
S21400266040020B4BD3F8903032EA0303F9D112F450
S214002670800F07D1012070474FF40002F1E74FF4B6
S2140026804002EEE7024BD3F8A000C0F3802070476C
S21400269000400E40FF33E13F022801D00120704782
S2140026A010B529B1054B4FF48064C3F8A8405966AD
S2140026B00AB9012010BDFFF7C3FFFBE700400E403C
S2140026C070B5042800F28580DFE800F04842500329
S2140026D03C00022301250024AC46002967D00228CE
S2140026E04AD000213B4B1D663B4B23449B001B6896
S2140026F0002BF9D0002A6CD0374C6444A400236821
S214002700002BF9D0022864D1002962D0314B5B6AD5
S21400271013F0010F46D001222021FFF7BDFF022053
S214002720FFF71EFF0646012200210220FFF7C8FF22
S21400273031460220FFF734FF264B1D662368002B28
S214002740FCD046E02023102504244FF0050CC4E7F7
S2140027508023402506244FF0070CBEE74FF4007395
S2140027604FF4807508244FF0090CB6E708230425BB
S21400277002244FF0030CB0E7164B5B6A13F0300FE1
S2140027800ED1164BDB6B134B5B6A13F0010FA9D00F
S214002790104E736A23F0300343F010037362A1E710
S2140027A000219FE700210220FFF74AFFB7E709490B
S2140027B00B66084BD3F890100123A3401942F8D1BA
S2140027C03AB1044BD3F89020012303FA0CF31A42D3
S2140027D0F7D170BD00400E408004F21000300E406D
S2140027E070B505460C4611280CD0002605F00F05DE
S2140027F06B1E072B00F28780DFE803F01E7A1C852D
S2140028006F9985A5042903D005290BD00026EDE78E
S214002810FEF710FF0646002EE8D00021304600F0F6
S21400282001FDE3E7FFF796FE0646604B9842F2D8B6
S2140028300026DBE75E4D51E0023C0A2C63D8DFE859
S21400284004F00644093F6262626262474A00002062
S214002850042504E05748FFF71BFA0220054601222C
S2140028601146FFF72DFFFFF777FA4EB1524BDB6BA1
S21400287013F0400F04D1514BD3F8C830002BFAD1D7
S2140028804F4B5D67FEF7C4FE0446FEF795FEFFF766
S214002890FFF9494BDB6B13F0400F04D1474BD3F8DD
S2140028A0C830002BFAD1444B5968C1F30141204689
S2140028B0FFF766FA3EBB0121002000F0B3FC22E0E1
S2140028C03C48FFF7E5F90320C9E701200325C6E7E2
S2140028D003200525C3E70725C5E73A4D013C092C2B
S2140028E011D8DFE804F00709111010181010102294
S2140028F0354DF3E7002305E0012211460020FFF7DF
S214002900DFFE02232B6070BD012211461046FFF742
S214002910D7FE0123F6E7FEF74FFEFFF7B9F92B4B7C
S2140029200122C3F808260323ECE70423EAE7072C72
S21400293005D0092CE7D1224B01221A67E3E7204B8A
S21400294000221A67DFE7013C072CDCD801A353F806
S21400295024F000BF752900000729000007290000A1
S214002960992900000729000007290000792900009E
S214002970A7290000002105E0012211460420FFF7E8
S2140029809FFE01210E4AD2F85C3123F0300343EA61
S2140029900113C2F85C31B6E7012211460220FFF7A8
S2140029A08FFE0221EEE70321ECE700BF002D310188
S2140029B084400E400148E80100300E400000C64347
S2140029C000400E4088400E4080400E400010C84335
S2140029D070B504461120FFF7FBFB01220021022000
S2140029E0FFF76EFE237C022B2AD00022154E736A58
S2140029F023F00103134373622278134BC3F8A02419
S214002A00A288637A43EAC223F362356B05F07F65DA
S214002A10E38845EAC325A37A1D43207A45EAC01514
S214002A20FFF786F905433563627BA37B1B0143EA08
S214002A300233E27B1343227B43EA0243736370BD97
S214002A400122D3E700400E400000C84372B670472C
S214002A50EFF3108072B6704700B962B67047EFF3B6
S214002A601180602383F31188704780F311887047C4
S214002A70034B5868C0F30800003818BF01207047A1
S214002A8000ED00E04209064B53F8223000F01F002C
S214002A9023FA00F080F0010000F00100704700BF4C
S214002AA000E100E030B40D684C688A68CB680560C9
S214002AB004600260036030BC704730B40568046888
S214002AC0026803680D604C608A60CB6030BC70475B
S214002AD038B504460D46FFF7E5FF05F11001204620
S214002AE0FFF7E0FF38BD38B504460D46FFF7E5FFB3
S214002AF005F110012046FFF7E0FF38BD38B5044663
S214002B000D46FFF7CFFF05F110012046FFF7CAFF7D
S214002B1005F120012046FFF7C5FF05F130012046EC
S214002B20FFF7C0FF38BD0000114BDB6B13F0400F02
S214002B301DD10F4BDB6B13F0400F04D10D4BD3F8B8
S214002B40C830002BFAD10A4B1A68C2F301225B6820
S214002B50C3F301439A4205D9054A136843F01003AC
S214002B6013607047024A136823F01003136070471F
S214002B7000300E400000C643074B1B6813F0100FD2
S214002B8005D0064B1B69C3F30443082B00D07047DF
S214002B90034B044A1A60FAE700300E4000400E402D
S214002BA0C0110020C0EA21011A48C26CC2F30322F9
S214002BB0194B1B8803F1280103EB5103283301321C
S214002BC002EB8201B3FBF1F3013B072B28BF07237F
S214002BD0C16C21F0EE6141EA036343F48013C364E1
S214002BE00E4BB3F90030002B13DB9BB203F1280128
S214002BF003EB51032833510801EB4202B3FBF2F317
S214002C00072B28BF0723026D22F0700242EA031347
S214002C100365704700300E4012200020142000206C
S214002C20024B1880024B1980704700BF122000200C
S214002C301420002010B1012804D07047034B044A2A
S214002C409A657047014B034A9A65704700300E40FC
S214002C5077402057372110B71A4BD3F83032032964
S214002C6029D8DFE801F002121518DBB24AB91B03B7
S214002C7033F4704121D11448C16E21F470411943D8
S214002C80C166012A09D001207047C3F30723EDE788
S214002C90C3F30743EAE71B0EE8E71B0333F470426F
S214002CA00DD10949D1F8E02022F470421343C1F84F
S214002CB0E030012070470020704700207047002059
S214002CC0704700BF0081E00F00300E401B02A2B12B
S214002CD001221343B3F5007F4DD022D8B3F5807F91
S214002CE042D00CD940F20112934215D1294BD3F8A9
S214002CF024321A0EC3F3074310E00022E9E763B359
S214002D00012B06D1234BD3F82432C3F30722DBB2C0
S214002D1004E00022134601E00022134603600A6026
S214002D207047B3F5407F2DD040F20132934206D172
S214002D30184BD3F828321A0EC3F30743EEE740F2D7
S214002D400122934206D1134BD3F82832C3F307224D
S214002D50DBB2E3E700221346E0E70E4BD3F81C3263
S214002D60C3F30722DBB2D9E70A4BD3F81C321A0E9C
S214002D70C3F30743D2E7074BD3F82032C3F3072247
S214002D80DBB2CBE7034BD3F820321A0EC3F307436C
S214002D90C4E700BF0081E00F03285CD8DFE800F03E
S214002DA002213448334BD3F8F021C2F3031C0CEB5A
S214002DB08C0C02F00F0303EB4C0CC2F3033303EB53
S214002DC08300C2F3032303EB4003B3EB0C0306D0EC
S214002DD0294AB2FBF3F000FB0CFC93423ED90846AE
S214002DE07047244BD3F8F021C2F3035C0CEB8C0C39
S214002DF0C2F3034303EB4C0C130F03EB8300C2F345
S214002E00036303EB4003E0E71A4BD3F8F421C2F365
S214002E10031C0CEB8C0C02F00F0303EB4C0CC2F300
S214002E20033303EB8300C2F3032303EB4003CCE737
S214002E30104BD3F8F421C2F3035C0CEB8C0CC2F3FA
S214002E40034303EB4C0C130F03EB8300C2F3036343
S214002E5003EB4003B9E700239C46B6E7ACF5353CE8
S214002E60ACF5247C642303FB01C101EB500CBCFBD6
S214002E70F0F070470081E00F80B5010010B5002823
S214002E8055D0464BDB6B13F0400F07D1444B1B78F5
S214002E90C3F1020210239340404A1361414AD2F81C
S214002EA0804104F0010445F60E03C2F880313E4B23
S214002EB01B6803F0010003F01001084303F0400113
S214002EC0084303F00401014303F480730B431366C5
S214002ED0324BDB6B13F0400F04D1344BD3F8C830C1
S214002EE0002BFAD12D4B1B6813F0100F0DD02D4B75
S214002EF0D3F8403113F0807FF9D12D4B1A68294B57
S214002F001A612C4B1B78052B30D02A4B19780529D3
S214002F103FD1254B1B6813F0010F02D1214B022233
S214002F201A661CB11F4B0022C3F8802110BD1D4B32
S214002F30D3F890201C4B1A601120FFF749F91D4B5F
S214002F401870164BDB6B13F0400F04D1174BD3F8F9
S214002F50C830002BFAD1114B5B68C3F30143104A0B
S214002F601370104B1A69124B1A60DFE7124B186881
S214002F700A4BDB6B13F0400F04D10C4BD3F8C83070
S214002F80002BFAD1054B5968C1F30141FEF7F8FE54
S214002F90BBE71120FFF724FCBBE700BF00300E4064
S214002FA01D20002000400E400C2000200000C643DC
S214002FB01820002016200020C0110020074A1368A1
S214002FC023F44073417843EA012313604378022BCD
S214002FD000D07047024B5B6AFBE700BF00300E4034
S214002FE000400E40704770477047000038B50446F2
S214002FF008BBFFF799FD194A136943F004031361F0
S214003000FFF7F0FFFFF7EFFF154B1B6813F0100FED
S21400301015D130BFFFF7E8FF02F046FAC4B1012031
S214003020FFF72CFF0E4AD2F84C3123F00043C2F8CB
S2140030304C3184B138BD0020FFF720FFD9E7FFF7F9
S21400304007FD05462AF050FA2846FFF705FDE1E79A
S214003050FFF792FDE6E7FEF7DBFAEBE700ED00E0B0
S21400306000300E4038B5044668BBFFF75DFD1F4BC9
S214003070D3F8802145F60E01C3F880114FF4207175
S214003080196612F0010F02D00022C3F88021184AF8
S214003090136943F004031361FFF7A4FF154B1B6885
S2140030A013F0100F13D130BF02F0FEF9C4B10120A7
S2140030B0FFF7E4FE0F4AD2F84C3123F00043C2F883
S2140030C04C3184B138BD0020FFF7D8FECDE7FFF7BE
S2140030D0BFFC05462AF008FA2846FFF7BDFCE3E7E2
S2140030E0FFF74AFDE6E7FEF793FAEBE700400E40EF
S2140030F000ED00E000300E4008B50020FFF7BEFEF1
S21400310008BD08B50120FFF7B9FE08BD134B9A6944
S21400311022F03F020378D3B104234178C9B10221DB
S2140031200B438178B9B108210B43C178012900D03F
S21400313000210B4301790B431343084A936113683C
S21400314023F44033417943EA014313607047002378
S214003150E3E70021E4E70021E6E700BF00300E4089
S2140031607047704738B50D4B9C6924F4403444F4DE
S21400317000349D6945F440354AF6E8529A60FFF7F8
S214003180EFFFFFF7EEFF002303E0044A946195612A
S2140031900133032BF9DD014B9C6138BD00300E4036
S2140031A01D4BDB6B13F0400F35D170B504460D4652
S2140031B0194BDB6B13F0400F04D1184BD3F8C83013
S2140031C0002BFAD1144B5B68C3F301439C4218D022
S2140031D0134BD3F80031FEF7EFF90646022C11D058
S2140031E0C4F10202102393400B4A136145B1D36B1E
S2140031F013F0400F04D1094BD3F8C830002BFAD196
S21400320024B170BD0221FEF7BBFDE9E70021304680
S214003210FEF7B6FDF5E7704700300E400000C643E7
S21400322000400E4038B5114BDB6B13F0400F0BD14E
S2140032300C4650B10E4B1B7813B10E4B98420FD96B
S21400324021460020FFF7ACFF38BD0B4BD3F800013A
S214003250C0F30420451CFEF7AFF905FB00F0E9E7D4
S21400326021460220FFF79CFFEEE700BF00300E402D
S2140032701C200020002D310100400E4008B50278C9
S214003280034B1A7001210020FFF7CCFF08BD00BFDA
S2140032901C20002010B41E4B5A6B4AF6E8515963A6
S2140032A01B4B9B6F13F0010FFAD1194B1B6C13F0DD
S2140032B0030303D017490124C1F8B44ADBB28342A2
S2140032C01AD0134B9B6F13F0010FFAD110490B6CF9
S2140032D023F0030303430B640D4B9B6F13F0010FA6
S2140032E0FAD1003818BF01200A4BC3F8B40A012AE5
S2140032F009D05DF8044B70470028FAD1054B002230
S214003300C3F8B42AF5E7024B00225A63F1E700BF80
S21400331000300E400000C6432DE9F04F8DB00091FE
S2140033200192002309930A930B930693079308933D
S214003330039304930593664A1288ADF808208DF827
S2140033400A30A0F5E163B3F5966F00F2B08006464A
S214003350B0F5E16F8CBF4FF001094FF000096FD94F
S2140033604FF496644FF4E165B6F5E16F6DD9594BAD
S214003370D3F8183208931A0E0592C3F3074308933E
S214003380DFF85481D8F84C70C7F301778DF80870D1
S2140033903B464A4603A906A8FFF798FCD8F8E03053
S2140033A0C3F301288DF8098043464A4604A907A8B6
S2140033B0FFF78CFC721B089B0599C91A02FB01F1EA
S2140033C0B1FBF4F10B9119440B91DDF80CA0DDF87C
S2140033D018C0AAEB0C0502FB05F5B5FBF4F509953C
S2140033E065440995DDF810E00798AEEB000B0BFB83
S2140033F002F2B2FBF4F40A9404440A94059A8A4250
S21400340059D38B4259D8A64559D3A04259D8AA4574
S21400341059D3AC4559D8019B73B12F4BDB6D23F4C0
S214003420FE4323F0020343EA0123B6F5E16F16D903
S21400343002210B43284AD365009B93B9012037E04D
S2140034404FF416744FF496658EE7224BD3F8183275
S2140034500893C3F307220592DBB2089390E7002196
S214003460E7E7002239464846FFF7F6FB00B301229D
S21400347041464846FFF7F0FBD0B1AC4238BF2C4679
S2140034800994E72C28BFE7240994134B5B6E23F4BA
S214003490FF7323F0010343EA4403B6F5E16F04D952
S2140034A0012213430C4A536602E00022F9E700208B
S2140034B00DB0BDE8F08F0020FAE70020F8E7002006
S2140034C0F6E70020F4E70020F2E70020F0E700BF70
S2140034D054D602000081E00F00300E4008B5214BA4
S2140034E01A6FDB6C13F0010F09D012F0060F06D02E
S2140034F013281FD9143813281ED8082323E0194B85
S214003500DB6C13F0010F09D112F0060F06D1092863
S21400351014D90A38092813D8082314E0114BDB6C99
S21400352013F001030FD012F0060F0BD1272817D87F
S214003530082308E0042306E0102304E0042302E046
S214003540102300E00023013B1A0342EA0322054948
S214003550CB6C23F47F431343CB64FFF725FB08BDF6
S2140035601023F0E700300E4008B5074BD3F880393B
S214003570064A136F23F0070303431367044B1888A8
S214003580FFF7ACFF08BD00BF0000C64300300E408A
S2140035901020002008B5084AD36E43F08073D36627
S2140035A0064BD3F880391BB10420FFF7DDFF08BDBA
S2140035B00020FFF7D9FFFAE700300E400000C643B0
S2140035C038B50446B0F90C10C3884A2B09D9B3F5B0
S2140035D0FA7F33D340F6C312934232D84FF00052EC
S2140035E000E00022224BDB6C23F0405323F0010363
S2140035F0002929DB01210A4313431D4AD364D2F86C
S214003600E03043F44073C2F8E030A288194B1A80C9
S214003610FFF7C0FFB4F90C102089FFF701FBA08864
S214003620FFF75CFFA07BFFF705FB012211466088D1
S214003630FFF772FE054648B9284638BD4FF080525F
S214003640D0E74FF04052CDE70021D4E7084AD36BCD
S21400365043F48063D3636078FFF71CFEA37A202BC5
S21400366004D00022044BC3F89427E5E70122F9E7CB
S21400367000300E40102000200000C64338B5054636
S21400368041680078FFF788FB0446A9682878FFF7AA
S21400369083FB2B7823BB164AA2FB0413D90801EB45
S2140036A08103A4EB43031B0443EA0153A2FB00126D
S2140036B0D20843EA023302EB8202A0EB420243EA5C
S2140036C002232A7B6AB1042213436A7B5AB108227A
S2140036D01343AA7B4AB101221343064AC2F890302C
S2140036E038BD0022F0E70022F2E70022F4E700BF30
S2140036F0CDCCCCCC00300E4003280AD8DFE800F052
S214003700020E0A0C064B03F1424303F580135B01DD
S21400371019607047034BF6E7034BF4E7034BF2E7F9
S21400372090300E4098300E409C300E4094300E4044
S214003730044AD2F8443423F003030343C2F8443463
S214003740704700BF00A000402DE9F8430C46154620
S2140037501E46072A41D893004FF00F0808FA03F8D0
S21400376000FA03F7FFF774F9324AD2F8001487EA32
S214003770010303EA08034B40C2F80034FFF76CF974
S2140037804FF00008072D3FD8A90003278F4004F00C
S21400379003048C40FFF75CF9264BD3F8082454400A
S2140037A03C405440C3F80844FFF756F9224B2B44DC
S2140037B09B001E60214B2B449B009DF820201A6026
S2140037C00123AB401B4AC2F824341D4B2B449B00FC
S2140037D09DF824201A60BDE8F883A2F108084FEA95
S2140037E088030F2707FA03F900FA03F7FFF730F903
S2140037F0104BD3F80424574007EA09075740C3F88C
S2140038000474FFF729F9BDE74FEA8808032707FA8B
S21400381008F704F0030404FA08F4FFF719F9054B57
S214003820D3F80C2454403C405440C3F80C44FFF7F3
S21400383013F9BBE700A0004080208510A02085106B
S214003840402185102DE9F04704460E461F46904657
S2140038503AB183B300EB400109010122B2402D4B7F
S2140038605A50072E2FD804EB44031B01DFF8AC9008
S2140038709944B3004FF00F0A0AFA03FA08FA03F560
S214003880FFF7E6F8D9F8002085EA020303EA0A0300
S2140038905340C9F80030FFF7DFF8B8F1000F08D141
S2140038A077B304EB44042401012101FA06F6194B10
S2140038B01E51BDE8F08700EB400109010122B2402D
S2140038C0154B5A50CDE704EB44031B01DFF850902C
S2140038D09944A6F1080292004FF00F0A0AFA02FA7B
S2140038E008FA02F5FFF7B4F8D9F8003085EA0302C3
S2140038F002EA0A025A40C9F80020FFF7ADF8CCE702
S21400390004EB44042401012101FA06F6024B1E5181
S214003910CFE700BF0CA000460CA0004404A0004067
S21400392008A0004011B1012902D07047026170471B
S21400393042617047436B13F0020FFBD111B10123B4
S214003940436070470223436070470B784BB9836827
S21400395013F0010F05D0436B13F0020FFBD10223C7
S21400396043604B780BB14FF480538A780AB9CA6823
S21400397022B143F40073CA6802B10261CA780AB180
S21400398043F480730A790AB143F040034A790AB1D6
S21400399043F080038A7943EA8203CA7943EA021332
S2140039A00A7A134303600B784BB1836813F0010F58
S2140039B005D1436B13F0020FFBD101234360704720
S2140039C011B1012902D0704782617047C261704709
S2140039D0436B002BFCD1704710B50446FFF7F8FF89
S2140039E01E2363600023236023616361A361E36198
S2140039F0E3621F23A3622046FFF7EAFF10BD000024
S214003A00054B5A685B68054B41F671321A649A6832
S214003A1022F001029A60704700300E4000000E400F
S214003A20034B9A6822F001029A6000221A647047DB
S214003A3000000E400C4B0D4AD26912F0010F02D066
S214003A400BB1013BF7E74BB1084B18610122DA6076
S214003A50DB6913F0040F04D1002070476FF00200FA
S214003A6070474FF0FF3070478096980000000E4079
S214003A708C46D1B900207047DBB1114BDB6913F0DF
S214003A80020F19D1614512D250F8042B0C4B9A61E3
S214003A9001310822DA600B4B094AD26912F0010F95
S214003AA0EAD0002BE8D0013BF6E70021EAE7002049
S214003AB070476FF0020070476FF00100704700BF5C
S214003AC000000E40809698002DE9F04780460E468E
S214003AD0254B196C1FFA81F941F671311964234997
S214003AE048684968996841F0010199609708002381
S214003AF01D4614E01C498A6822F001028A60B9F16A
S214003B00000F2DD00A460021116429E051463046A8
S214003B10FFF7AEFF0346C0B9554406EB8A06BD4222
S214003B2013D208EB85042046FFF784FF03460028DF
S214003B30E0D1C4F30A04C4F50064A308A7EB050AA1
S214003B40BAEB940FE2D39A46E0E707498A6822F078
S214003B5001028A60B9F1000F02D00A460021116402
S214003B601846BDE8F08700BF00000E4000300E404B
S214003B7010B42B4B196C89B241F671321A64294A7B
S214003B80546852689A6842F001029A6018610122ED
S214003B90DA60DB6913F0040F0BD1214B0222DA60E6
S214003BA0214B1F4AD26912F0010F0ED06BB1013BB8
S214003BB0F7E71B4A936823F00103936011B113469D
S214003BC000221A644FF0FF300DE0154AD26912F059
S214003BD0020F0BD1B3B1124A936823F0010393602E
S214003BE0E1B1002010645DF8044B70470C4A9368FE
S214003BF023F00103936011B1134600221A646FF09C
S214003C000100F0E7064A936823F00103936011B1C0
S214003C10134600221A646FF00200E4E70020E2E791
S214003C2000000E4000300E408096980008B5FFF762
S214003C304BFF08BD014B01229A60704700500E40B2
S214003C4010B4184B5C68002318460BE0B2F5803FB2
S214003C5021D0154A52F83320224202D0214200D108
S214003C6010430133082B19D80F4A02EBC3025168E0
S214003C700E4AD2F8E82112F0040FEAD10A4A52F8A6
S214003C803320B2F5006F06D0E0D8B2F5007F02D040
S214003C90B2F5806FDDD141F48071DAE75DF8044B50
S214003CA0704700BF00500E4058D602000040E00F9C
S214003CB04A790B7891F801C043EA8C0391F802C068
S214003CC043EA8C1391F803C043EA0C1391F804C03E
S214003CD043EACC2343EA02338A7943EA4243043078
S214003CE00001014A1350704700200440014B186041
S214003CF0704700BF00008442037813B30123427864
S214003D000AB3042213438278FAB110221343C2780E
S214003D10EAB120221343027943EA0223427943EAB6
S214003D2002338279AAB14FF400421343C27943EAC0
S214003D300243027A7AB14FF400321343074A136003
S214003D4070470023DBE70022DCE70022DEE70022E4
S214003D50E0E70022E9E70022EFE700BF002004408A
S214003D600D4AD2F8E4309B0003F03C03D2F8E01092
S214003D70C1F381110B438370D2F8E03003F03F03A8
S214003D804370D2F8E83003F0F003D2F8EC20C2F328
S214003D90031213430370704700FF0FE010B40B7854
S214003DA00BB902234360002343628A78CB781B0456
S214003DB043EA02638A7943EA8223CA7943EA022302
S214003DC00A7A13434A7822B3402213434A7A12B33C
S214003DD0802213438A7A02B320221343CA7AF2B1AE
S214003DE0102213430A7BE2B1082213430A79D2B1A8
S214003DF04FF400524C79C4B14FF0805C42EA0C029A
S214003E00134303600B780BB1012343605DF8044B4A
S214003E1070470022D9E70022DBE70022DDE7002218
S214003E20DFE70022E1E70022E4E74FF0000CE5E7D9
S214003E3010B4147853781B0643EA8463947843EAF4
S214003E400443D47843EA0433147943EA8423547948
S214003E5043EA042394792343D479D4B14FF08044C1
S214003E602343147ABCB14FF000542343547AA4B1D0
S214003E7010242343947A94B14FF0040C43EA0C03C5
S214003E80D27A43EA02730631090143505DF8044BC7
S214003E9070470024E4E70024E7E70024E9E74FF052
S214003EA0000CEBE741F080018165704770B5054670
S214003EB016461C460846D1B1402C20D01BD804B369
S214003EC0202C13D1082106FB01F14B0803EB40130D
S214003ED0B3FBF1F3203B0C4A02EAC3032A6822F044
S214003EE060022A602A6814432C606B6170BD074824
S214003EF0FEF764FAE0E7602CF8D10421E3E7062138
S214003F00E1E71021DFE700BFF8FF7F004041050032
S214003F10CB435B0003F00A03C360C1607047000038
S214003F2040F6AA63C3600023036041F205024260C4
S214003F3083604361C3640F4A826403664367836792
S214003F40C3670D4B984207D003F58063984203D0B1
S214003F5003F58063984201D100230365002383653F
S214003F6003F1804303F58233984200D07047002364
S214003F70C365FBE7F9FF01000000014038B50546C0
S214003F800C46FFF7CDFFA37C1BB12B6843F08043A4
S214003F902B60E37C002B2CD1637B228A1343E289BF
S214003FA013436B60237BA26861682846FFF77EFF99
S214003FB0637D1BB12B6843F480332B60A37D1BB15C
S214003FC02B6843F400432B60E37D1B0703F0E043BC
S214003FD0227E120502F4E00213432B666B6F23F079
S214003FE030036B676B6F627E13436B672378EB60FF
S214003FF038BD217D2846FFF755FFCDE7036913F04E
S214004000800FFBD0C069C0B27047036913F0400F41
S214004010FBD041637047036813F0100F15D10023DF
S21400402000E00133826812F0010F03D047F22F52EE
S2140040309342F6DD036803F001038B4205D000F1DE
S214004040424000F58010400101607047036813F09D
S214004050010F09D0836813F0020F05D1836813F0AF
S214004060010FFBD10123436070470B78002B3BD038
S21400407001234A78002A39D0022213438A78002A7C
S21400408036D04FF080421343CA789AB304221343C3
S2140040900A798AB3082213434A797AB32022134353
S2140040A08A796AB340221343CA795AB3102213435B
S2140040B00A7A43EA02334A7A43EA02230A7B1AB3AD
S2140040C04FF0004213438A7A43EA0243C97A43EA2E
S2140040D001610023826812F0010F17D047F22F52B9
S2140040E0934213DC0133F5E70023C2E70022C4E75E
S2140040F00022C8E70022CAE70022CCE70022CEE76B
S2140041000022D0E70022D2E70022DBE701607047FA
S21400411038B504460DF002F8054DA446BCE80F007D
S2140041200FC59CE80F0085E80F00002038BD00BFD3
S2140041302020002047F6FF739A4277D0022977D8CE
S21400414070B53D4B03EBC1008078012838BF0120D5
S214004150844613F83130012B22D0374B03EBC103D2
S2140041605C68002C66D0B4F90050954204DBB4F9C4
S2140041700250954200DC1546A388FF2B2BD028263C
S214004180C8230022AE465B1B93FBF6F313442A4A71
S21400419002EBC1014D78691E994231D319462FE0D2
S2140041A0254B03EBC103D878A0EB0C000025A842F2
S2140041B00ED9431BA0EB53031F4C04EBC1046468E9
S2140041C034F91340944201DC1D46F0E7581EEEE732
S2140041D06044C0B229E0B4F90630B4F908600122A0
S2140041E0D0E703F5FA73154AA2FB03239B094A1C82
S2140041F0954210D904EBC206B6889E420BD31146F0
S21400420004EBC1029368B2F9062002FB0E33002BC2
S214004210E7DA0023E5E704EBC1018A889A4200D377
S2140042201A46624500D31046C0B270BDFF207047E4
S214004230002070470020F8E720200020D34D6210B1
S21400424008B50348FFF764FF01200CF069FF08BDBE
S21400425028E0020010B584B0064BEC460FCB8CE885
S2140042600F0000248DF801406046FFF7A9F92046AC
S21400427004B010BDA0D6020010B582B00024009491
S214004280ADF8044001238DF801308DF8033020236B
S2140042908DF8043002238DF805306846FEF736FFA9
S2140042A0204602B010BD000010B586B00DF1040C1B
S2140042B0164C0FCCACE80F002368ACF80030144B5B
S2140042C0D3F8B43013F4002F12D1114BD3F8B83012
S2140042D0C3F30803B3F1FF3F14D0ADF80A300D481E
S2140042E0FDF7AEF901A8FEF773FB002006B010BD7F
S2140042F04FF0FF33084A12884FF6FF718A42E9D022
S2140043001346E7E740F23F13E7E700BFB0D60200E8
S2140043100081E00FC01753020001E00F6FF00403A6
S21400432007E003F00F010A4A0A44A0211176013380
S2140043305BB22E2B09DC002BF3DB03F1604202F5A7
S2140043406142A02182F80013F1E70020704700BF09
S214004350FCEC00E030B583B0FEF77AFB0E4B1D7820
S2140043600E4B1C68FEF778FB08F020FA08B1FF2D0C
S21400437003D154B1204603B030BD01AA064B1978CC
S2140043800020FDF7E2FA019CF3E7FEF761FB044B21
S2140043901C68FEF761FBEDE7F411002040200020CA
S2140043A04420002010B50446FEF752FB024B1C606A
S2140043B0FEF752FB002010BD4420002080F8241099
S2140043C0704790F82400704790F82B00704780F8EC
S2140043D02E10704790F82E007047F8B504460F462A
S2140043E0154690F82430A3B900260120AE4222D20A
S2140043F094F82630002BF9D0236839782046984761
S214004400C8B901370136F1E723680D2120469847E1
S2140044100AE000260120AE420DD294F82630002B8A
S214004420F9D03B780A2BEFD0236817F8011B2046FB
S21400443098470136EFE7F8BD70B504460D461646B8
S21400444008F01EF902280AD0324629462046FFF711
S214004450C4FF08F015F902280BD0002070BD4FF0FD
S214004460FF31D4F8D80008F0FDF90028ECD002207F
S214004470F4E7D4F8D80008F033FA0020EEE770B579
S21400448004460D46FEF7EBFAA6699EB1E26923697B
S214004490D35C2B70236901332361226A93420CD0CC
S2140044A0A369013BA361FEF7E0FAA368204698479C
S2140044B0304670BDFEF7D9FAFAE700232361EFE72E
S2140044C038B50446FEF7CBFA054603E0D4F8840078
S2140044D008F00CFBD4F8840008F048FBA369984267
S2140044E0F4D304E00021D4F8840008F0BBFAD4F832
S2140044F0840008F03BFBA3699842F3D82846FEF7F1
S214004500B4FA38BD2DE9F04182B007460E46904613
S2140045101D4608F0B5F802280ED000232B602B6845
S21400452043451AD231463846FFF7A9FFA8B10136EF
S2140045302C6801342C60F2E74FF0FF31386B08F03E
S21400454091F968BB97F82E30002BE6D04FF0FF317C
S214004550D7F8840008F086FADFE797F8273063B1CB
S2140045603846FFF7ADFF08F08BF8022812D02B680C
S214004570A3B1002002B0BDE8F08111238DF807300A
S21400458001220DF107013846FFF756FF012387F891
S2140045902730E5E7386B08F0A3F9E8E71B20E9E7E2
S2140045A00220E7E770B5044690F82B300A4601B1C2
S2140045B013B102B983B970BD90F82C60FEF748FAC3
S2140045C005460121304600F08FFD2846FEF744FAE6
S2140045D0012384F82B30EEE794F82C60FEF738FAC7
S2140045E005460021304600F07FFD2846FEF734FAE7
S2140045F0002384F82B30DEE738B50546046808F05B
S2140046003FF8022854D0FFF7A5FE85425CD094F907
S2140046102830002B08DB03F01F015B0901228A40CB
S21400462060332B4941F8232094F92830002B0CDB0B
S21400463003F01F015B0901228A402033244941F818
S2140046402320BFF34F8FBFF36F8F94F92930002BD1
S21400465008DB03F01F015B0901228A4060331C4916
S21400466041F8232094F92930002B0CDB03F01F01BE
S2140046705B0901228A402033154941F82320BFF305
S2140046804F8FBFF36F8FD4F8840008F08BFA206B3F
S21400469008F05CF9D4F8D80008F058F900232B602D
S2140046A06B60AB602B616B61E3682046984738BD52
S2140046B04FF0FF31D4F8D80008F0D4F84FF0FF31AF
S2140046C0206B08F0CFF89EE70020FFF76BFE9EE712
S2140046D000E100E02DE9F04389B015465268002A53
S2140046E000F0B08006460C461F46AB68002B00F074
S2140046F0AB804FF4967200212046FBF795FD6B6861
S214004700E361AB6823622B7B84F82430AB7B84F8B0
S21400471025304FF0010884F8268084F8278027602B
S214004720109B6360119BA360129BE36095F90030B9
S21400473084F8283095F9013084F829303460434BEA
S2140047407360434BB360434B3361434B7361434BDE
S214004750F360434B3362434B736284F82E80424BC4
S21400476004930027059704F1340306934FF050098D
S214004770CDF81C9004A808F01DF8206304F1DC03B3
S214004780069304A808F016F8C4F8D800374B009330
S214004790019704F188030293CDF80C906A463946D7
S2140047A0A86808F0F7F8C4F88400314BB361314BC1
S2140047B0F3619DF8503084F82D309DF84C3084F825
S2140047C02C3084F82B7084F82A80697B2046FFF70B
S2140047D0E9FE95F90130BB4208DB03F01F015B09D7
S2140047E042468A406033244941F8232095F9013037
S2140047F0002B07DB03F01F015B0901228A401E49DC
S21400480041F8232095F90030002B08DB03F01F0148
S2140048105B0901228A406033174941F8232095F945
S2140048200030002B07DB03F01F015B0901228A40E2
S214004830114941F823203046FFF7B4FD002009B0A7
S214004840BDE8F0832220FAE72120F8E7394400008B
S21400485005450000BD430000C3430000F9450000C5
S214004860CF430000D5430000C4D60200D0D60200D5
S214004870A5450000C943000000E100E010B504466D
S214004880FEF7EDF8A269236A9A4203D3FEF7EDF825
S214004890002010BDFEF7E9F80120FAE730B583B036
S2140048A004460D46AFF30080FEF7D9F894F825309D
S2140048B01BB1132D1DD0112D21D0E2696369D5548B
S2140048C0636901336361A2690132A261226A93427D
S2140048D01BD0FEF7CAF807F0D3FE0238012817D916
S2140048E094F825301BB1A269236A9A4215D003B00A
S2140048F030BD002384F82630FEF7B7F8F7E701232B
S21400490084F82630FEF7B1F8F1E700236361E0E7AC
S214004910D4F8840008F0EAF8E2E713238DF80730AD
S21400492001220DF107012046FFF757FD002384F80A
S2140049302730DCE7D0F82C21D36C43F00403D36493
S214004940704710B50446D4F82C311B6913F0400F9D
S214004950F9D000231A4694F8351194F83401FEF77E
S21400496071FF00231A4694F8371194F83601FEF7C3
S21400497069FF94F83C3113F0010F10D194F83C31E4
S21400498013F0020F14D10021D4F82C01FFF7C0FA5F
S2140049900021D4F83001FDF705FA002010BD0023F1
S2140049A01A4694F8391194F83801FEF74BFFE5E7FC
S2140049B000231A4694F83B1194F83A01FEF742FF9A
S2140049C0E1E710B50446D0F82C01FFF71EFBD4F83B
S2140049D02C311B6913F0400FF9D0002010BD0000E9
S2140049E02DE9F04186B016461C460C9D0123049323
S2140049F00393594B0293594B019300230093584B52
S214004A000A462946FFF766FE074618B1384606B03E
S214004A10BDE8F0812368C5F82C316368C5F83031ED
S214004A20637A85F83531237A85F83431E37A85F868
S214004A303731A37A85F83631637B85F83931237BA5
S214004A4085F83831E37B85F83B31A37B85F83A312E
S214004A5001214448FDF7A6F901214348FDF7A2F9D4
S214004A6001230422617A207AFEF7ECFE012302225B
S214004A70E17AA07AFEF7E6FE01216068FDF792F97A
S214004A804FF0000886F8008031462068FFF776FA77
S214004A902268536F43F0030353672268936F23F42F
S214004AA0F85323F01F03217C43EA0123617C0B4368
S214004AB09367236803225A6785F83C81737E202B10
S214004AC031D027D8002B33D0102B21D1012385F8E5
S214004AD03C31002500230222617B207BFEF7B2FEDC
S214004AE0A27C2368DA672268536E43F00403536699
S214004AF02268536F43F010035367DDB92268D36C06
S214004B0043F00403D36405212068FFF701FA7DE72C
S214004B1023277BE7302B04D1032385F83C3101257E
S214004B20D8E7232772E7022385F83C310125E4E71E
S214004B300025E2E700230422E17BA07BFEF782FE4D
S214004B402268D36FE17C43EA0123D3672268536F60
S214004B5043F020035367D1E743490000354900007E
S214004B60C34900004041050000350A00D0F82C314A
S214004B701B6913F0800F00D1704710B50446FFF78D
S214004B807DFE30B9D4F82C21D36C23F00403D36413
S214004B9010BDD4F82C01FFF731FA01462046FFF786
S214004BA07DFEF5E7013840EA500040EA900040EA12
S214004BB0101040EA102040EA10400130704770B5EF
S214004BC004460D461E461046FFF7ECFFB0F5807F04
S214004BD038BF4FF4807042422240831803E0400002
S214004BE0424222408318AB42F9D33260049A1360E3
S214004BF0059B186070BD28B1B0FA80F0C0F11E00A9
S214004C00C0B270472020F9E770B586B00023059340
S214004C100493BFF35F8F3F4C636A23F48033636271
S214004C20D4F8943023F00103C4F89430BFF34F8FC8
S214004C30BFF36F8F4FF00050FFF7DDFF364A136863
S214004C40400000F03E0040F0985040F00110C4F8DC
S214004C5098304FF00051C4F89C10C4F8A0000133FF
S214004C6013602E4D2E4CA54213D1BFF35F8F294BF8
S214004C700522C3F894205A6A42F480325A62BFF37F
S214004C804F8FBFF36F8FBFF34F8FBFF36F8F06B09B
S214004C9070BD03AB019304AB009305AB2A1B2946FA
S214004CA02046FFF78CFF0398C208072800D820226A
S214004CB0049B5B1BB3FBF2F3012101FA03F3DBB2A7
S214004CC0013BDBB2059E013DAD1BB5FBF2F50D4485
S214004CD0AB40DBB2A41BB4FBF2F201FA02F4013CD7
S214004CE0E4B21C43FFF787FF0B4D2A68430003F02E
S214004CF03E0343EA042343F0407343F0011305499F
S214004D00C1F89820C1F89C60C1F8A03001322A6032
S214004D10ABE700BF00ED00E048200020281500208B
S214004D201015002070B586B004460D460023059386
S214004D300493BFF35F8F334B5E6A26F480365E6261
S214004D40D3F8946026F00106C3F89460BFF34F8F43
S214004D50BFF36F8F03AB019304AB009305ABFFF774
S214004D602EFF0398C208072800D82022049B5B1B4E
S214004D701344013BB3FBF2F34FF0010C0CFA03F3C0
S214004D80DBB2013BDBB2059EAD1B013DB5FBF2F588
S214004D90AB40DBB2A41B1444013CB4FBF2F40CFAA7
S214004DA004F4013CE4B21C43FF2C29D0FFF723FF98
S214004DB015490A68430003F03E0343EA042444F01E
S214004DC0985444F001140F4BC3F89820C3F89C6025
S214004DD0C3F8A04001320A60BFF35F8F0522C3F814
S214004DE094205A6A42F480325A62BFF34F8FBFF360
S214004DF06F8FBFF34F8FBFF36F8F002006B070BD6D
S214004E002820FBE700ED00E048200020BFF34F8F8E
S214004E100549CA6802F4E062044B1343CB60BFF353
S214004E204F8F00BFFDE700BF00ED00E00400FA056D
S214004E3008B5FFF7EBFF08BD012000E001300228AF
S214004E4004D8431E024AD35C002BF7D0C0B270478A
S214004E507C200020F8B506460F46032903D8DFE875
S214004E6001F00A040608002506E0042504E01025E3
S214004E7002E0402500E00125032E05D8DFE806F015
S214004E8002070A0D45F002050B4B1C6809E045F0C9
S214004E900805F9E745F02005F6E745F08005F3E755
S214004EA0246844B163681A682A42F9D05B683946B8
S214004EB030469847F4E7F8BD78200020134B1B785F
S214004EC013B310B5124B1B785BB9002000F010FB33
S214004ED068B9104B01221A700F4B1A780F4B1A70D4
S214004EE010BD00F004FB0A4B00221A70EDE700F03C
S214004EF001FB064B00221A70074C01212078FFF7B1
S214004F00A9FF01232370EBE7704700BF7520002040
S214004F1071200020742000206820002084200020BB
S214004F2008B50B4B1B78024660B101210B440849BB
S214004F300B7032B1074B1B78012B02D9064B1B783E
S214004F4013B108BDFF21F1E7FFF7B8FFF9E700BF8F
S214004F507C200020682000207420002010B5FDF77B
S214004F6077FD0446054B1B782BB9FFF7A7FF2046B5
S214004F70FDF772FD10BDFDF76FFDFBE7702000200A
S214004F8010B5FDF765FD0446164B1B78D3B1164BDE
S214004F901B782BB9144B01221A70144B00221A707E
S214004FA0134B1B7893B92046FDF756FD012000F001
S214004FB09FFAFDF74DFD04460B4B1B7863B9094B72
S214004FC000221A702046FDF747FD10BD00F08FFA4C
S214004FD0074B00221A70E6E700F08CFA024B00221C
S214004FE01A70ECE775200020702000207420002046
S214004FF07120002010B584B0A0B1831EDBB2012B57
S21400500013D803A9002000F08FFC70B9184B1B685A
S214005010039A9A4212D80120FFF782FF154B01220D
S2140050201A7002E0134B1B780BB904B010BD0020B9
S214005030FFF776FF0F4B00221A70F6E70E4B1C6840
S21400504000F0A4FA20440399884206D30120FFF713
S21400505067FF084B01221A70E7E70223019300233B
S2140050600093064A091A064800F000FCDDE700BF78
S2140050706C2000207F200020882000205D4F00004C
S2140050804C20002038B5FDF7E3FC0446114B1B7896
S2140050906BB900F07FFB0546C0B90F48FCF74EFC25
S2140050A00E4B00221A6000F081FC0D4B186000F0D9
S2140050B07FF900F065FA0B4B1860064B01221A7058
S2140050C02046FDF7C9FC0025284638BD2046FDF7DA
S2140050D0C3FCF9E7722000207820002088200020FA
S2140050E0802000206C20002038B50138144B1B5C53
S2140050F00A46A1B101210B4411490B5472B1114B60
S2140051001D78012D0AD9FFF797FE0446012808D915
S214005110032D09D00B4B1878A0420AD138BDFF21C9
S214005120E9E7FFF72DFFF5E70228F3D100F03CFA98
S214005130F0E72146FFF78EFE024B1C70EEE700BF3D
S2140051407C2000206820002010B5FDF781FC044676
S214005150FFF7B4FE2046FDF77FFC10BD38B50446C9
S2140051604160FDF775FC054621460348FCF7E9FB60
S2140051702846FDF771FC38BD78200020014B1868E2
S214005180704700BF8820002038B5FDF761FC054653
S214005190094B1B78012B0AD9FFF7F0FF044600F0F5
S2140051A0F5F904442846FDF757FC204638BDFDF7C0
S2140051B053FC0024F9E700BF68200020064B1B685C
S2140051C003FB00F000F5742000F23F20034BA3FB26
S2140051D00030800C704700BF8020002083DE1B4319
S2140051E038B5FDF735FC0546AFF3008009F0B8FE8C
S2140051F000283CD1AFF300802846FDF72DFC98E050
S2140052000020FFF78DFE4B4B00221A7033E000F0B3
S21400521047F93DE02146FFF71DFE41E0464B0122DF
S2140052201A70464B187800F091F9454B1B781BB165
S214005230444B1A78414B1A70AFF300802846FDF7AE
S2140052400BFCFDF705FC05463F4B1B7843B13E4B78
S21400525000221A70394B1B783A4A1078834231D0B4
S2140052603A4800F0D3FA09F089FE002830D0314BD6
S2140052701B78002BC4D1FFF7DFFDFFF7BBFEFFF75F
S214005280DBFD0446012803D92B4B1B78002BBED030
S2140052902A4B1878A04205D0294B1B78002BB9D092
S2140052A0264B1C70012CBCD9234B1B78002BB8D185
S2140052B0274B1B78002BB1D100F018F9254B0122A3
S2140052C01A70ABE701211D4B1970FFF7C3FDC7E746
S2140052D0194B1B78F3B11A4B00221A701D4B1B7822
S2140052E073B100F004F91B4B00221A7008E001208D
S2140052F000F02CF92846FDF7AFFBFDF7A9FB0546A5
S214005300002000F0F5F80028F1D000F0F3F80A4B82
S21400531000221A700020FFF76DFE084C002120784E
S214005320FFF798FD00232370AFF300802846FDF7B3
S21400533093FB38BD7F2000207520002068200020C9
S2140053407420002084200020732000204C200020A1
S2140053507E20002071200020134B1B78834222D031
S21400536010B582B0044600238DF804308DF8053061
S21400537010B902238DF8053001A8FDF71FFE54B1C1
S2140053801E20FFF71BFF094A13681B1A1360064B03
S2140053901C7002B010BD1E20FFF710FF034A1368F2
S2140053A003441360F3E77047F51100209C200020AB
S2140053B030B583B0344C636A636A00258DF80450B8
S2140053C001A8FDF75BFF2846FFF7C6FFD4F890302C
S2140053D0C3F380032D4A1370D4F89020C2F3003232
S2140053E02B490A7083B92A4B1B78A3B96420FFF7B0
S2140053F0E5FE284A136803441360234BD3F8902035
S214005400254B1A6003B030BD4FF41670FFF7D6FE7A
S214005410224B1860E7E71120FCF7D0FF1A4BD3F8B1
S2140054200031C3F3042303FB0002002ADED0164B30
S214005430586CC0F30B40013000EB8000C10E4301F6
S2140054401B1A61F10001490241EAD3515B021B18A5
S21400545041F10004A50145EA93659901CB1A65EB75
S2140054600401181841F10001531EC0184FF0000344
S21400547041F1000127F04CF9FFF7A0FE054A13683A
S21400548003441360B2E700BF00400E409A2000209D
S214005490982000209C2000208C20002094200020B3
S2140054A008B5FDF729FE08BD08B50D4B1B7803B9F6
S2140054B008BD022000F032FC0028F9D000F064FAA3
S2140054C00028F5D0002201210220FDF7F9F800F0AF
S2140054D061FA044B1860044B01221A70E8E700BF1B
S2140054E09A200020902000209920002070477047C6
S2140054F00120704708B5104B1B7813B90F4B1B786B
S214005500ABB9FDF7FEFD0D4B1B787BB10C4BD3F80A
S214005510903013F0080FF9D000F03CFA094B1B68E6
S214005520C01A094B1860044B00221A7008BD00F020
S21400553031FA044B1860E4E7992000209A200020F6
S21400554000400E40902000209420002008B502283D
S2140055500BD003280DD0012800D008BD074A1369D8
S21400556023F00403136130BFF7E70020FDF73EFD8C
S214005570F3E70020FDF776FDEFE700BF00ED00E063
S21400558008B54FF41670FFF719FE08BD044B1B68EC
S2140055900BB103EBD303034A10681844704700BFEF
S2140055A0942000209C2000200B4AD2F8800145F66B
S2140055B00E03C2F88031094B1B6803F0400103F468
S2140055C080730B43136610F0010F03D013460022BE
S2140055D0C3F88021704700BF00400E408C2000209A
S2140055E00E4B1B68002201E01A469B680BB18342F3
S2140055F0FAD183420ED14AB18368936083685BB167
S21400560041695A690A445A61002070478268034B10
S2140056101A60F3E70220704700207047B820002089
S2140056200A4B1B6800220A490A7005E0084B012253
S2140056301A70704759690A44012A06D8D98811F0A9
S214005640020FF3D19B68002BF4D17047B8200020DE
S214005650AC20002008B500F0E7FA0B4B1B680B4A9D
S2140056601268821A03E0521A002159619B683BB106
S21400567032B159699142F6D38A1A5A610022F5E787
S214005680024B186008BD00BFB8200020A4200020F0
S21400569070B505460C46C3882BB16C61134B1B686E
S2140056A0FBB100210CE0FFF76FFD06468442F4D202
S2140056B0FFF74AFD3446F0E7A41A6C6119469B686A
S2140056C023B15A69A242F7D9002AF5D031B18D60CC
S2140056D0AB6013B15A69121B5A6170BD034A15605C
S2140056E0F6E7024B1D600023AB60F6E7B82000200B
S2140056F010B50B4B1B685B695BB10A4A14681C4407
S214005700022000F09DFA204600F0ACFAFFF788FF72
S21400571010BD022000F094FA022000F0F5FAF5E73A
S214005720B8200020A420002070B504460E4615467A
S2140057309DF814200271049A0260002282600561BE
S214005740C360BDF81830C38000F06EFA2844A0612C
S214005750CEB900236361E36813B1216820469847F9
S2140057607DB1FDF775F90646FFF774FF294620461A
S214005770FFF78EFF064B1B68A34206D03046FDF7A8
S2140057806BF9002070BD3546EBE7FFF7B1FFF5E794
S214005790B820002010B5FDF762F90446144B1B78BC
S2140057A0DBB9144A1360144A1360144A138000F0DD
S2140057B0F7F9012000F044FA00F0DEFA0246104B3A
S2140057C0186078B100230F4840F2E73126F0A0FFBA
S2140057D00D4B1860064B01221A702046FDF745F95E
S2140057E0002010BD2046FDF740F92320F9E700BF52
S2140057F0A0200020B8200020A4200020AE200020FA
S214005800B420002018FCFFFFA820002070B540B38D
S2140058100546FDF71DF90446FFF71CFF124B1B68F3
S214005820AB420CD000262846FFF7DAFE054640B904
S2140058305EB10D4B1B6843B1FFF75AFF08E0012627
S214005840F1E72046FDF708F905E0074B1B6823B192
S2140058502046FDF701F9284670BD022000F036FA12
S214005860F6E72225F7E700BFB8200020B0B1F0B574
S21400587085B00F4614461D460646FFF7C7FFBDF81F
S2140058802C3002939DF82830019300952346002281
S21400589039463046FFF748FF05B0F0BD2220704776
S2140058A0B8B138B50C460546A9B100230B70FDF714
S2140058B0D6F80A4B1B6801E0012222702BB1227831
