S02700004B4E585F4956415F3650425F42494E4152595F4D4F44554C455F56312E302E302E7333378B
S21400000000100020852800008328000083280000B8
S214000010CD650000832800008328000083280000A8
S2140000208328000083280000832800009101010037
S2140000308328000090F5020001020100C9DD0000DF
S21400004021DE0200E19B01008328000083280000D7
S21400005009940100399C0100ED9B0100059C0100FC
S214000060E59B010083280000192E0000832800006D
S21400007019280000092800008328000083280000B3
S2140000808328000083280000392E00003D2600004B
S21400009099250000FD230000832800008328000027
S2140000A083280000832800008328000019D700005A
S2140000B03D9C0100E99B010035850100D9740000D4
S2140000C0799C010083280000F98401008328000041
S2140000D0832800008328000083280000832800006F
S2140000E0832800008328000083280000832800005F
S2140000F083280000832800008328000010B5054CE4
S214000100237833B9044B13B10448AFF300800123BE
S214000110237010BD341500200000000004470300C3
S21400012008B5034B1BB103490348AFF3008008BD75
S214000130000000003815002004470300A3F5803AAD
S214000140704700BF174B002B08BF134B9D46FFF7A9
S214000150F5FF00218B460F461348144A121A00F08A
S21400016063F80E4B002B00D098470D4B002B00D0A9
S21400017098470020002104000D000D48002802D0FA
S2140001800C48AFF3008000F02BF82000290002F0A6
S2140001902BF900F011F800BF000008000000000076
S2140001A0000000000010002034150020BCBE002017
S2140001B0000000000000000008B5074B044613B11D
S2140001C00021AFF30080054B1868836A03B1984797
S2140001D020462EF083FD00BF0000000018ED020050
S2140001E070B50D4D0D4C641BA4100026A64209D117
S2140001F00B4D0C4C2EF080FD641BA4100026A6426E
S21400020005D170BD55F8043B98470136EEE755F822
S214000210043B98470136F2E72C1500202C150020E9
S2140002202C1500203015002002440346934200D1CE
S214000230704703F8011BF9E708B5554B1B6813F028
S214000240010F54D101220021132001F0C9FB002226
S2140002500121132001F0C4FB01220221132001F02A
S214000260BFFB00220321132001F0BAFB0122042168
S214000270132001F0B5FB00220521132001F0B0FB8E
S21400028001220621132001F0ABFB002207211320D8
S21400029001F0A6FB01220721122001F0A1FB00229B
S2140002A00621122001F09CFB01220521122001F0FC
S2140002B097FB00220421122001F092FB0122032169
S2140002C0122001F08DFB00220221122001F088FB93
S2140002D001221146122001F083FB00221146122053
S2140002E001F07EFB2A4A13680133136008BD002222
S2140002F01146132001F074FB01221146132001F071
S2140003006FFB00220221132001F06AFB0122032169
S214000310132001F065FB00220421132001F060FB8E
S21400032001220521132001F05BFB00220621132089
S21400033001F056FB01220721132001F051FB002299
S2140003400721122001F04CFB01220621122001F0A9
S21400035047FB00220521122001F042FB0122042166
S214000360122001F03DFB00220321122001F038FB91
S21400037001220221122001F033FB0022012112206B
S21400038001F02EFB01220021122001F029FBA9E733
S2140003900C16002008B5034B1870722008F000FAFF
S2140003A008BD00BFA810002010B5A2B0654B1B68A2
S2140003B0DC6815E09DF80C301BB9634826F03EFA61
S2140003C00EE09DF80D10614826F014FA029B3BB132
S2140003D004A99DF80D00984702E05D4826F02EFA25
S2140003E0002201A920460EF0DEFA012840F0A8807F
S2140003F09DF80430C03B282B00F29C8001A252F8E6
S21400040023F000BFB5030000DB0300003505000045
S214000410A9040000F9040000070500001305000009
S21400042035050000350500003505000035050000DF
S21400043035050000350500003505000035050000CF
S21400044035050000350500003505000035050000BF
S21400045035050000350500003505000035050000AF
S214000460350500003505000035050000350500009F
S21400047035050000E10300001F05000035050000FB
S214000480350500003505000035050000350500007F
S214000490350500003505000035050000350500006F
S2140004A035050000E10300009DF80810294826F0F5
S2140004B0A1F99DF808304BB1052B15D0072B17D0A6
S2140004C0082B8DD1302008F06BF989E708F0E0FBA7
S2140004D028B9322008F064F908F016F980E708F029
S2140004E0ABFB08F035F8F4E7742008F059F977E725
S2140004F0322008F055F973E7174826F09FF9732065
S21400050008F04EF96CE79DF80810144826F072F9CA
S21400051066E79DF80810124826F06CF960E79DF82B
S2140005200C30012B04D00F490F4826F063F957E72B
S2140005300E49F9E740F21B310D4826F031F94FE736
S21400054022B010BD281600202CED02004CED020053
S21400055068ED020084ED020098ED0200ACED0200AA
S214000560D8ED02001CED020000EE020024ED0200B1
S21400057030EE020010B5B8B0104B1B685C6804E0A3
S21400058008F06CFB694607F044F9002269462046ED
S2140005900EF009FA01280ED19DF80030802BEFD01E
S2140005A003D37E33DBB2022BEFD94FF42771044816
S2140005B026F0F6F8E9E738B010BD00BF2816002090
S2140005C030EE020010B582B0002300930B4B0C4AAD
S2140005D0012105200EF05DF801460A4B18600A4C12
S2140005E003230A4A1268204625F067FE204608F0D4
S2140005F0D1F808F0FDF802B010BD00BF801600204C
S214000600101600207C1600207016002018160020F9
S21400061008B501230CF0D8FF08BD000008B51C4B38
S21400062019784B1EDBB2072B03D9194B00221A7020
S21400063008BD184826F0DEF8154B1B78013B072B43
S214000640F3D8DFE803F004080C1014181C20482028
S21400065008F0BAF8E9E74C2008F0B6F8E5E75120CC
S21400066008F0B2F8E1E7562008F0AEF8DDE75B20C8
S21400067008F0AAF8D9E7602008F0A6F8D5E76520C4
S21400068008F0A2F8D1E76A2008F09EF8CDE700BF90
S214000690FC15002048EE0200F0B587B004460021A5
S2140006A0084606F04FFF0DF05FF82BF0B7F82D4A1E
S2140006B060212D4826F090F82C4B00221A702C480A
S2140006C026F0BCF82B4826F0B9F82BF06BF8054658
S2140006D02BF06EF806462BF071F807461AF090F8E5
S2140006E003900297019600950123122207212248C3
S2140006F026F080F821480BF0C7FE214807F038F9AD
S2140007000DF1170026F03AF99DF8170008F0FEFAEA
S214000710E8B19DF817201B4B1A721A4B197A1A4823
S21400072026F068F82146194826F064F80822184989
S214000730184807F049FA184B02220121174820F002
S21400074035FC40B101F032F8002007B0F0BD144887
S21400075026F01EF9E1E74FF46771124826F020F8FC
S214000760F0E700BF1FB80200D0160020A810002037
S21400077060EE020084EE0200ACEE020011060000FD
S2140007803417002064100020CCEE0200DCEE0200DD
S214000790B0100020AC1000207CF202000113000014
S2140007A06C10002030EE0200C378012B00D070479A
S2140007B000B58BB044238DF804300C4826F03EF884
S2140007C000202BF07FF80A4B1B684FF4FA7201A941
S2140007D0986825F076FD10B90BB05DF804FB40F282
S2140007E07351044825F0DCFFF6E700BF00EF020077
S2140007F02816002030EE0200014B1878704700BF24
S2140008003017002008B5FFF7F7FF08BD0020704737
S21400081008B5034B18703221024825F07FFD08BD4D
S214000820FC1500205015002010B51446114622482D
S21400083025F0E0FF082C0CD8DFE804F005050D14C1
S2140008401B2229303700472007F0BEFF0120FFF7A4
S214000850DFFF012010BD4B2007F0B6FF0220FFF798
S214000860D7FFF6E7502007F0AFFF0320FFF7D0FFD3
S214000870EFE7552007F0A8FF0420FFF7C9FFE8E7D9
S2140008805A2007F0A1FF0520FFF7C2FFE1E75F202F
S21400089007F09AFF0620FFF7BBFFDAE7642007F0B1
S2140008A093FF0720FFF7B4FFD3E7692007F08CFF1C
S2140008B00820FFF7ADFFCCE724EF020000207047CA
S2140008C008B5FFF799FF08BD08B5FFF79BFF08BD01
S2140008D008B5FFF79BFF08BD10B504460B4B1B6819
S2140008E043B16C2322460021084800682BF06AFAC0
S2140008F030B910BD40F26371054825F051FFF0E7AE
S21400090040F26671024825F04BFFF2E734170020EC
S21400091030EE02002DE9F04182B04A4D29680120F0
S21400092009F0F6FA484825F089FF484B4FF0010CCD
S214000930A3F806C0A3F800C002271F810520588030
S21400094003265E810821998004249C8700229A81D0
S214000950D887DA814FF0060EA3F840E0A3F810C05F
S2140009604FF0070CA3F842C05A82A3F844109A82AC
S2140009704FF00908A3F84680DF820A27A3F84870DC
S2140009801A830B27A3F84A705A830C27A3F84C70D7
S2140009909E830D26A3F84E60DA830E26A3F85060D9
S2140009A01A840F26A3F852605C841026A3F85460BD
S2140009B09A841126A3F85660DA841226A3F85860A3
S2140009C018851320A3F85A005A851420A3F85C0053
S2140009D09A851520A3F85E00A3F82EE01620A3F84B
S2140009E060001A861720A3F862005A861820A3F81B
S2140009F06400A3F834C01920A3F86600DA861A202B
S214000A00A3F868001A871B22A3F86A20598708F003
S214000A10ADF82AF0C1FE019023460DEB04024FF418
S214000A20A22128682BF0CEF928B90848FFF754FF12
S214000A3002B0BDE8F08140F2CB61054825F0B0FE7B
S214000A40F3E700BF3417002044EF020090150020A3
S214000A5030EE020008B50D4825F0F0FE0C4B1B6882
S214000A603BB10B4B18682BF001FA40B9FFF752FF69
S214000A7008BD40F2FA61074825F092FEF1E740F221
S214000A80FD61044825F08CFEF0E700BF54EF02003D
S214000A903417002030EE020010B59CB00446134B0D
S214000AA01B6883B16C2301AA0021104800682BF054
S214000AB031F9014668B96C2201A920462DF028FCC0
S214000AC020461CB010BD40F24C71094825F068FE67
S214000AD0E8E7084825F08EFEFFF71CFF6C2301AA06
S214000AE00021024800682BF015F9E4E734170020CF
S214000AF030EE020084EF020000B59FB004231DAA6A
S214000B004FF4A221104800682BF004F9A8B92AF087
S214000B1043FE0E4825F092FE6846FFF7BDFF6C22A6
S214000B2069460B482DF0F4FB074B1968002009F0C6
S214000B30EFF901201FB05DF804FB064825F07EFEA5
S214000B40FFF788FF0020F5E734170020A4EF020027
S214000B5090150020C8EF020008B5FFF7CDFF08F09B
S214000B606BFB0021044807F027FD042006F0DAFEA0
S214000B70702007F015FE08BDA011002008B1002067
S214000B80704740F20240704700B583B06B4683E87A
S214000B90030093E8030009F0C7FC03B05DF804FB0C
S214000BA07047000010B40246044C234600685168A3
S214000BB0926807C320465DF8044B70470016002075
S214000BC008B5FFF7EFFF08BD0023038002230B8064
S214000BD0704700002DE9F04180460F4614461E4639
S214000BE02AF0C0FD05461F280CD8012388F80030DF
S214000BF03B70257030462AF0B7FD0B4825F01EFEE8
S214000C0000240AE040F2B971084825F0C9FDECE777
S214000C10315D074825F0EEFD0134AC42F8D30548B7
S214000C2025F00CFEBDE8F081F4EF020030EE020085
S214000C3008F00200C4EF020010B5441E074B1B5D0F
S214000C4043B1002100F078FF044A135D83F00103EE
S214000C50135510BD012100F06FFFF5E7381700208F
S214000C6010B5044646280BD0302809D0BC4B1B785C
S214000C70032B57D8DFE813F00A001D004B01E501EF
S214000C800320FFF787FB0AF0FBFAEFE7732C0AD086
S214000C90712C0BD00122002108460AF061FE0120CB
S214000CA0FFF778FB3EE0FFF7D5FEF1E7FFF754FFCE
S214000CB038E0732C37D0452C3AD0312C38D0412C24
S214000CC054D0472C58D0482C63D04B2C6BD04C2C8F
S214000CD076D0502C7ED0512C00F08980552C00F018
S214000CE09080562C00F09A805A2C00F0A1805B2C45
S214000CF000F0AB805F2C00F0B280602C00F0BC806F
S214000D00642C00F0C380652C00F0CD80692C00F0C8
S214000D10D4806A2C00F0DE80772C00F0E580782CFA
S214000D2000F0EE8010BDFFF795FEFFF7E5FEC2E788
S214000D304FF4FA718B4825F0F1FA8B4B01221A70AA
S214000D408A4B1B689B691B784BB1894825F076FD5A
S214000D50032006F0E7FD0220FFF71CFBAFE78548FF
S214000D6025F06CFD012006F0DDFDF4E74FF4FA7186
S214000D707C4825F0D3FAA4E77F4825F05FFD01F014
S214000D804DFB0120FFF758FF0021012000F034FD45
S214000D9099E77A4825F052FD01F040FB012108460C
S214000DA000F02AFD91E7764825F048FD01F036FB75
S214000DB00220FFF741FF0021022000F01DFD86E71C
S214000DC0704825F03BFD01F029FB0121022000F0D0
S214000DD013FD7EE76C4825F031FD01F01FFB032074
S214000DE0FFF72AFF0021032000F006FD73E767489F
S214000DF025F024FD01F012FB0121032000F0FCFC8D
S214000E006CE7634825F01AFD01F008FB0420FFF7A5
S214000E1013FF0021042000F0EFFC62E75D4825F098
S214000E200DFD01F0FBFA0121042000F0E5FC5BE774
S214000E30594825F003FD01F0F1FA0520FFF7FCFE06
S214000E400021052000F0D8FC51E7544825F0F6FCB8
S214000E5001F0E4FA0121052000F0CEFC4AE75048F4
S214000E6025F0ECFC01F0DAFA0620FFF7E5FE00219B
S214000E70062000F0C1FC40E74A4825F0DFFC01F000
S214000E80CDFA0121062000F0B7FC39E7464825F0E8
S214000E90D5FC01F0C3FA0720FFF7CEFE002107209D
S214000EA000F0AAFC2FE7414825F0C8FC01F0B6FA8E
S214000EB00121072000F0A0FC28E73D4825F0BEFCF5
S214000EC001F0ACFA0820FFF7B7FE0021082000F07A
S214000ED093FC1EE7374825F0B1FC01F09FFA01218C
S214000EE0082000F089FC17E7334825F0A7FC3348B4
S214000EF0FFF758FE01460122314807F0DDFC0EE7F9
S214000F00304825F09BFC002006F01DFD0AE7722CF9
S214000F1022D0732C5ED0792C61D0332C5FD0322C4B
S214000F2072D0322C7FF4FEAE042006F0FBFC0120CB
S214000F30FFF730FA0CF0EAFB00287FD001222249A6
S214000F40224807F0B9FC074825F03DFA0023204A5E
S214000F501360054A1370E5E602200CF0C1FBD8E7E3
S214000F60A8100020301600202C160020281600207E
S214000F7010F0020028F0020040F0020054F00200D8
S214000F8070F0020084F00200A0F00200B4F002004C
S214000F90D0F00200E4F0020000F1020014F10200BA
S214000FA030F1020044F1020060F1020074F1020028
S214000FB090F10200A4F10200C0F1020040170020E8
S214000FC029A50000CCF102007010002079C10000B5
S214000FD00C160020FFF73EFDFFF78EFD9BE7002076
S214000FE006F0A0FC042006F09DFC0120FFF7D2F9D5
S214000FF00CF08CFB28B101221649174807F05CFC60
S2140010008DE70BF033FAF6E7042006F08BFC0120A0
S214001010FFF7C0F90CF07AFB68B101220D490E48C3
S21400102007F04AFC0D4825F0CEF900230C4A136061
S2140010300C4A137075E70BF019FAEEE70BF016FA88
S2140010407CE7732C7FF46EAEFFF704FD2AF078FB86
S21400105068E600BF7010002079C10000301600203E
S2140010600C1600202C16002000B583B008E09DF872
S2140010700710094825F0BEFB9DF80700FFF7F0FDB6
S21400108000220DF10701054B18680DF08CFC0128B5
S214001090EDD003B05DF804FBD4F102007C1600200E
S2140010A001381A2860D8DFE800F00E1114171A1D50
S2140010B0202326292C2F3235383B3E4144474A4DC3
S2140010C0505356595C00294B18887047274B588850
S2140010D07047264B98887047244B98897047234B57
S2140010E0D8897047214B188A7047204B588A70471A
S2140010F01E4B988A70471D4BD88A70471B4B188B1F
S21400110070471A4B588B7047184B988B7047174B85
S214001110D88B7047154B188C7047144B588C7047FB
S214001120124B988C7047114BD88C70470F4B188D0C
S21400113070470E4B588D70470C4B988D70470B4B75
S214001140D88D7047094B188E7047084B588E7047DD
S214001150064B988E7047054BD88E7047034B188FFA
S2140011607047024B588F7047FE207047901500203E
S21400117002460123002007E002F00F0101FB0300F6
S21400118003EB83035B001209002AF5D170470000C9
S21400119038B505460C46514825F02CFB2046FFF78F
S2140011A0E7FF044601464E4825F024FB6B1E1A2B2B
S2140011B012D8DFE803F00E15191D21252A2F343921
S2140011C03E43484D52575C61666B70757A7F8489E2
S2140011D08E00444BDD801C804248FFF77DFB38BD07
S2140011E0404B1D815C80F7E73E4B5D819C80F3E7BA
S2140011F03C4B9D879C81EFE73A4BDD87DC81EBE734
S214001200384BA3F840501C82E6E7364BA3F8425012
S2140012105C82E1E7334BA3F844509C82DCE7314B19
S214001220A3F84650DC82D7E72E4BA3F848501C8321
S214001230D2E72C4BA3F84A505C83CDE7294BA3F8A2
S2140012404C509C83C8E7274BA3F84E50DC83C3E77B
S214001250244BA3F850501C84BEE7224BA3F85250F0
S2140012605C84B9E71F4BA3F854509C84B4E71D4B2D
S214001270A3F85650DC84AFE71A4BA3F858501C85E9
S214001280AAE7184BA3F85A505C85A5E7154BA3F8B8
S2140012905C509C85A0E7134BA3F85E50DC859BE76B
S2140012A0104BA3F860501C8696E70E4BA3F86250CE
S2140012B05C8691E70B4BA3F864509C868CE7094B41
S2140012C0A3F86650DC8687E7064BA3F868501C87B1
S2140012D082E7044BA3F86A505C877DE7E0F10200E2
S2140012E0F8F102009015002008B5034A00210348D3
S2140012F006F038F908BD00BF1D0600005015002096
S21400130038B50446214825F099FA01202AF0DAFA81
S2140013100EF074FA1E4D28601E4B1C6006F04AF94B
S21400132000231D4A2146286807F0E8FBFFF74AF924
S214001330712007F035FA0BF0EAFF0CF03FF90020B9
S2140013400CF0CEF9154A0121154806F00BF9FFF707
S214001350CBFF00F073FE0022114610460BF0A0FCF7
S2140013600023104A0421104824F026FF0F4825F0D9
S21400137065FA01F053F800224FF0FF310A4824F0D6
S2140013802AFFB0F1FF3FF6D138BD00BF24F20200BD
S21400139018160020281600207CF2020039020000F1
S2140013A03016002090F202001C16002038F20200D0
S2140013B030B5AFB00C464B78042B29D00546052B2C
S2140013C034D106F0C7FD08B1022030E0AA22002181
S2140013D003A8FEF729FF6946284606F087FD702316
S2140013E08DF80C3006238DF80D30A0788DF80E00A1
S2140013F001238DF80F30FFF753FE8DF81000002301
S214001400009A052103A806F015FD68B902200EE033
S21400141091F90330002B01DAFF2008E00979A07863
S214001420FFF7B6FEFF2002E0FF2000E000202FB00E
S21400143030BD000000B589B08DF8070000238DF898
S21400144008304E23ADF80C300423ADF80E300DF105
S214001450070304930123ADF8143002AA0692ADF8F0
S2140014601C3003A9064803F0D1FD02E0044803F04F
S2140014706DFC0128FAD09DF8080009B05DF804FB61
S21400148000C0004038B504460D46431E072B09D859
S214001490DFE803F00415090B0D0F11138D4B1A78B6
S2140014A0AA420ED138BD8C4BF9E78C4BF7E78C4B34
S2140014B0F5E78C4BF3E78C4BF1E78C4BEFE78C4B67
S2140014C0EDE71D702A4621468A4825F093F900F07C
S2140014D0A5FF012C23D0022C3ED0032C59D0042C7F
S2140014E074D0052C00F09080062C00F0AB80072C02
S2140014F000F0C680082CD5D17F4825F07BF9012D59
S21400150000F0DC80002DCDD101221146122000F023
S21400151067FA00221146122000F062FAC2E7774806
S21400152025F068F9012D0CD0002DBBD10122002139
S214001530132000F055FA00220121132000F050FA83
S214001540B0E700221146132000F04AFA01221146A5
S214001550132000F045FAA5E7694825F04BF9012D60
S2140015600CD0002D9ED101220221132000F038FA63
S21400157000220321132000F033FA93E70022022111
S214001580132000F02DFA01220321132000F028FA80
S21400159088E75C4825F02EF9012D0CD0002D81D16E
S2140015A001220421132000F01BFA0022052113203B
S2140015B000F016FA76E700220421132000F010FA55
S2140015C001220521132000F00BFA6BE74E4825F0A8
S2140015D011F9012D0DD0002D7FF464AF01220621F4
S2140015E0132000F0FDF900220721132000F0F8F97F
S2140015F058E700220621132000F0F2F90122072105
S214001600132000F0EDF94DE7404825F0F3F8012DE2
S2140016100DD0002D7FF446AF01220721122000F0E6
S214001620DFF900220621122000F0DAF93AE700225C
S2140016300721122000F0D4F901220621122000F022
S214001640CFF92FE7324825F0D5F8012D0DD0002D23
S2140016507FF428AF01220521122000F0C1F90022F4
S2140016600421122000F0BCF91CE7002205211220FC
S21400167000F0B6F901220421122000F0B1F911E7BA
S214001680244825F0B7F8012D0DD0002D7FF40AAFC1
S21400169001220321122000F0A3F9002202211220C9
S2140016A000F09EF9FEE600220321122000F098F9D1
S2140016B001220221122000F093F9F3E60022012114
S2140016C0122000F08DF901220021122000F088F986
S2140016D0E8E600BF9C1B00209E1B00209F1B0020EE
S2140016E0A01B0020A11B0020A21B0020A31B002083
S2140016F09D1B0020A0F2020024F30200B4F20200B8
S214001700C4F20200D4F20200E4F20200F4F2020094
S21400171004F3020014F3020000B583B08DF807103E
S21400172001230DF1070201464E2000F029FE03B00A
S2140017305DF804FB08B5FF210D20FFF7EDFFFF2144
S2140017400120FFF7E9FF0021024B19701320FFF775
S214001750E3FF08BD941B002008B51320FFF76AFEC0
S21400176008BD072808D810B504461320FFF762FE08
S214001770204100F0010010BDFF20704710B5642026
S2140017800DF090FE0DE02046FFF7EBFF014601341A
S214001790E4B22046FFF776FE072CF4D964200DF05D
S2140017A081FEFFF7D9FF0024F6E7000000B589B0F8
S2140017B00C4B05930C4B06934FF47A73ADF81C3024
S2140017C00A4B00930A4B01930023029302238DF8E1
S2140017D00C3005AB0493074968461FF071FB09B04F
S2140017E05DF804FB341B00204C1700207D1700001A
S2140017F034F30200981B002038B504460D46012835
S21400180010D0022C22D0032C34D0042C46D0052C29
S2140018105AD0062C6ED0072C00F08280082C00F0E0
S214001820968038BD012909D00029EAD1534B4FF4E0
S2140018300052DA63524824F0DDFFE2E7514B4FF4E2
S2140018400052DA63504824F0D5FFDAE7012D09D0BC
S214001850002DD8D1494B4FF40062DA664B4824F08D
S214001860C9FFD0E7474B4FF40062DA66484824F0D9
S214001870C1FFC8E7012D09D0002DC6D13F4B8022FD
S214001880C3F8FC20434824F0B5FFBEE73D4B80225A
S214001890C3F8FC20404824F0ADFFB6E7012D0AD07F
S2140018A0002DB4D1354B4FF40072C3F89C203B4852
S2140018B024F0A0FFABE7334B4FF40072C3F89C2034
S2140018C0374824F097FFA2E7012D0AD0002DA0D1BB
S2140018D02A4B4FF48062C3F89C20324824F08AFFDB
S2140018E097E7284B4FF48062C3F89C202E4824F0DC
S2140018F081FF8EE7012D0AD0002D8CD11F4B4FF4AF
S2140019000052C3F89C20294824F074FF83E71D4B3F
S2140019104FF40052C3F89C20254824F06BFF7AE76A
S214001920012D0BD0002D7FF479AF144B4FF480427D
S214001930C3F89C201F4824F05DFF6FE7114B4FF45F
S2140019408042C3F89C201C4824F054FF66E7012D13
S2140019500BD0002D7FF465AF084B4FF40042C3F860
S2140019609C20164824F046FF5BE7064B4FF40042E7
S214001970C3F89C20124824F03DFF52E700A0004424
S21400198058F3020000A0004644F3020080F3020071
S2140019906CF30200A8F3020094F30200D0F30200F6
S2140019A0BCF30200F8F30200E4F3020020F40200A5
S2140019B00CF4020048F4020034F4020070F4020052
S2140019C05CF4020000B583B08DF8071001230DF11A
S2140019D007020146402000F0D3FC03B05DF804FB8C
S2140019E0F8B50446164601258D40EFB2122802D0FF
S2140019F0132C0FD0F8BD42B10E4B197839430D4B5E
S214001A0019701220FFF7DEFFF2E70A4B197821EA79
S214001A100501F4E746B1084B19783943064B1970AF
S214001A201320FFF7CFFFE5E7034B197821EA0501FE
S214001A30F4E700BFA41B0020A51B002038B53A48D9
S214001A4024F0D8FEFF210C20FFF7BCFFFF210D205D
S214001A50FFF7B8FF00210846FFF7B4FF002101207A
S214001A60FFF7B0FF0024314B1C70314D2C7021461F
S214001A701220FFF7A7FF29781320FFF7A3FF012204
S214001A8021461320FFF7ACFF012202211320FFF7A7
S214001A90A7FF012204211320FFF7A2FF012206213F
S214001AA01320FFF79DFF012207211220FFF798FF62
S214001AB0012205211220FFF793FF012203211220A5
S214001AC0FFF78EFF012211461220FFF789FF2246FC
S214001AD001211320FFF784FF224603211320FFF77E
S214001AE07FFF224605211320FFF77AFF22460721B3
S214001AF01320FFF775FF224606211220FFF770FF1E
S214001B00224604211220FFF76BFF224602211220F4
S214001B10FFF766FF224621461220FFF761FF0548C1
S214001B2024F068FE38BD00BF84F40200A41B002029
S214001B30A51B00209CF4020038B504460D4601287B
S214001B4011D0022C29D0032C41D0042C59D0052CBE
S214001B5071D0062C00F08980072C00F0A180082C9C
S214001B6000F0B98038BD01290CD00029E9D1012246
S214001B7000211320FFF734FF002201211320FFF776
S214001B802FFFDEE7002211461320FFF729FF012270
S214001B9011461320FFF724FFD3E7012D0CD0002DAC
S214001BA0D1D1012202211320FFF71AFF00220321C0
S214001BB01320FFF715FFC6E7002202211320FFF7C8
S214001BC00FFF012203211320FFF70AFFBBE7012DB9
S214001BD00CD0002DB9D1012204211320FFF700FFFD
S214001BE0002205211320FFF7FBFEAEE700220421AA
S214001BF01320FFF7F5FE012205211320FFF7F0FE64
S214001C00A3E7012D0CD0002DA1D10122062113201F
S214001C10FFF7E6FE002207211320FFF7E1FE96E716
S214001C20002206211320FFF7DBFE012207211320E6
S214001C30FFF7D6FE8BE7012D0CD0002D89D10122AF
S214001C4007211220FFF7CCFE002206211220FFF704
S214001C50C7FE7EE7002207211220FFF7C1FE012201
S214001C6006211220FFF7BCFE73E7012D0DD0002DD4
S214001C707FF472AF012205211220FFF7B1FE002289
S214001C8004211220FFF7ACFE66E700220521122091
S214001C90FFF7A6FE012204211220FFF7A1FE5BE754
S214001CA0012D0DD0002D7FF45AAF01220321122002
S214001CB0FFF796FE002202211220FFF791FE4EE764
S214001CC0002203211220FFF78BFE012202211220A0
S214001CD0FFF786FE43E7012D0DD0002D7FF442AFBF
S214001CE0012211461220FFF77BFE00221146122029
S214001CF0FFF776FE36E7002201211220FFF770FE7E
S214001D00012200211220FFF76BFE2BE77047000030
S214001D1008B5034824F092FD024B00221A7008BD55
S214001D20B8F40200AC1B002008B5034824F086FD7A
S214001D30024B00221A7008BDC0F40200AD1B002042
S214001D4008B56421014824F0E9FA08BDD01B00203C
S214001D5010B5A14BD3F88C33A04A12689A420FD024
S214001D609D4BD3F88C139D4A1160D3F88C33002B0F
S214001D7000F0B180984BD3F88C33012B00F0AF8085
S214001D80954BD3F8A03F964A12689A420FD0924BD2
S214001D90D3F8A01F924A1160D3F8A03F002B00F0A2
S214001DA0A2808D4BD3F8A03F012B00F0A0808A4B79
S214001DB0D3F8A43F8B4A12689A420FD0864BD3F8CA
S214001DC0A41F884A1160D3F8A43F002B00F093802C
S214001DD0814BD3F8A43F012B00F091807E4BD3F8C3
S214001DE0A83F814A12689A420FD07B4BD3F8A81FAF
S214001DF07D4A1160D3F8A83F002B00F08480764B14
S214001E00D3F8A83F012B00F08280784BD3F88C31B2
S214001E10774A12689A4214D0744BD3F88C11744ADD
S214001E201160D3F88C31002B75D1724A13780133C8
S214001E3013704FF47A71704824F070FA5A2006F046
S214001E40C3FC6A4BD3F890316C4A12689A4214D09D
S214001E50664BD3F89011694A1160D3F89031002B85
S214001E605DD1674A1378013313704FF47A71654871
S214001E7024F054FA5F2006F0A7FC5C4BD3F89431AC
S214001E80614A12689A420BD0584BD3F894115E4AB6
S214001E901160D3F89431002B45D1642006F094FCF1
S214001EA05A4BD3F8B0355A4A12689A420AD0574B62
S214001EB0D3F8B015564A1160D3F8B035BBBB6920CD
S214001EC006F082FC4E4B1B780C2B34D0494B1B780B
S214001ED0122B3AD010BD472006F076FC50E748207B
S214001EE006F072FC4CE74B2006F06EFC5FE74C20D9
S214001EF006F06AFC5BE7502006F066FC6EE75120B1
S214001F0006F062FC6AE7552006F05EFC7DE7562088
S214001F1006F05AFC79E75B2006F056FC91E7602055
S214001F2006F052FCA9E7652006F04EFCB8E76A20EA
S214001F3006F04AFCC6E7324B00221A70354824F0F9
S214001F4059FC452006F040FCC0E70024294B1C70D5
S214001F5001210846FFF7F0FD01210220FFF7ECFD06
S214001F6001210320FFF7E8FD01210420FFF7E4FD2F
S214001F7001210520FFF7E0FD01210620FFF7DCFD2B
S214001F8001210720FFF7D8FD01210820FFF7D4FD27
S214001F9021460120FFF7D0FD21460220FFF7CCFDA9
S214001FA021460320FFF7C8FD21460420FFF7C4FDA5
S214001FB021460520FFF7C0FD21460620FFF7BCFDA1
S214001FC021460720FFF7B8FD21460820FFF7B4FD9D
S214001FD0FEF740FD7EE700BF00001442B01B002065
S214001FE0B41B0020B81B0020BC1B0020002014429D
S214001FF0C01B0020AD1B0020101C0020C41B0020AE
S214002000AC1B0020501C0020C81B002000101442EF
S214002010CC1B0020C8F4020008B5064BD3F8AC353C
S21400202003B108BD0146044824F0E4FB00F0F6F9CD
S214002030F7E700BF00101442D8F4020030B583B0B2
S2140020400121994801F048F8012303221146002097
S21400205002F092FD012303220821022002F08CFDEB
S214002060012303220921022002F086FD0123032218
S2140020700A21022002F080FD0123032211460520DA
S21400208002F07AFD012303220421052002F074FDEC
S214002090012303220521084602F06EFD01230322D8
S2140020A00C21104602F068FD0023042206210520BC
S2140020B002F062FD01247D4B1C617D4AD2F81C347F
S2140020C01B0C1B047B490B60C2F824347A4A00219F
S2140020D07A4805F047FA7A4A00217A4805F042FA2B
S2140020E0794A0021794805F03DFA00F06DFE784BFC
S2140020F0A02283F8122383F80A23764BD3F88C1396
S214002100754A1160D3F8A01F744A1160D3F8A41F53
S214002110734A1160D3F8A82F724B1A60724BD3F82B
S2140021208C11724A1160D3F89011714A1160D3F87D
S2140021309421704B1A60704BD3F8B0256F4B1A6021
S21400214001940094234603221146002002F096FCD8
S2140021506B4D2946032000F04FFE01940094234661
S21400216008221146022002F089FC2946082000F0C9
S21400217043FE01940094234609221146022002F0F1
S2140021807DFC2946092000F037FE01940094234682
S2140021900A221146022002F071FC29460A2000F0AD
S2140021A02BFE01940094234602220321052002F010
S2140021B065FC2946022000F01FFE01940094234689
S2140021C004221146052002F059FC2946042000F09E
S2140021D013FE01940094234605221146104602F091
S2140021E04DFC2946052000F007FE01940094234686
S2140021F00C221146032002F041FC29460C2000F078
S214002200FBFD00F079F900F07FF8FFF717FC0023DC
S21400221004220621052002F0AFFC234602220B21F1
S214002220032002F0A9FC234604220D21204602F0DA
S214002230A3FC234604220B21022002F09DFC234629
S21400224004220721052002F097FC234604220921D8
S214002250032002F091FC234604220A21032002F008
S2140022608BFC234604220D21032002F085FC234626
S21400227004220E21032002F07FFC234604220F21B5
S214002280032002F079FCFFF755FA019400942346E8
S2140022900B221146032002F0F1FB1A490B2000F036
S2140022A0ABFD002003B030BD00350A0000300E4004
S2140022B000A00040A81B0020291D0000101C0020C4
S2140022C0111D0000501C0020511D0000D01B0020D6
S2140022D000E100E000001442B01B0020B41B002008
S2140022E0B81B0020BC1B002000201442C01B00208E
S2140022F0C41B0020C81B002000101442CC1B00206A
S214002300411D00001920000010B584B0174824F0C5
S21400231071FA0121164800F0DFFE164B6C460FCB13
S21400232084E80F0001230B220621022002F024FC81
S21400233001230B220721022002F01EFC0E48032375
S2140023404364836C23F01F0343F00C038364836CA5
S21400235023F4F85343F420638364214602F0D8FC48
S214002360064824F047FA002004B010BDF0F402003E
S214002370006204001CF5020000C0004008F50200E0
S2140023802DE9F04387B00646884617461D4603F1FA
S2140023900109012148462BF031FF044600F8018B65
S2140023A02A4639462BF0B4FFADF804600123ADF899
S2140023B006300294ADF80C90CDF810D00023ADF89E
S2140023C0143001A9074802F021FE02E0054802F099
S2140023D0BDFC0128FAD020462BF032FF002007B0C3
S2140023E0BDE8F08300C0004008B505F09BF8FFF795
S2140023F08DFC05F0A3F8002008BD0000054B1A6C04
S2140024009A64054B8022C3F8FC200822C3F8FC20FF
S214002410704700BF0004014000A0004408B50A2130
S214002420054823F07BFF054B1A78054B1A70054BC1
S21400243000221A6008BD00BF981D0020BB110020B6
S214002440B9110020D81D00204BF66E6303FB00F088
S214002450044BA3FB00304009034B1860034B58673E
S214002460704700BF1F85EB51DC1D00200080014037
S21400247008B51B4B1B781B4A1078834211D8834241
S21400248018D3194A136801331360184A1278642166
S21400249001FB02F29A4216D0154B1B78984217D0D1
S2140024A008BD421C0F4B1A70FFF7CEFF0E4B0022E2
S2140024B01A60F5E7421E0B4B1A70FFF7C5FF0A4B72
S2140024C000221A60ECE70A4B1A78054B1A70E3E70D
S2140024D0084823F078FF034B1878FFF7B5FFDFE7CF
S2140024E0B9110020B8110020D81D0020BA11002014
S2140024F0941D0020981D002070B588B0204824F058
S21400250079F9204D0021284600F0E6FD1E4C0226F3
S2140025106660002304220621052002F02DFB01211F
S214002520284600F0D9FD0025059506950795032356
S2140025308DF81A3005AA0121204603F031F84BF633
S2140025406E63124A13606367E361636B23F4F853A8
S21400255043F4E853636326630195029503958DF86B
S214002560105001258DF8045001A9204602F0CEFF38
S2140025706560074A2946074804F0F4FF08B070BDB6
S2140025802CF502000002040000800140DC1D002043
S21400259071240000981D002010B52148036C836448
S2140025A0204B01225A625A6003F0E0F804463028B5
S2140025B01AD0BC2C26D01C4B1B7843B11B4B1B8857
S2140025C04A2B04D8591C194A1180194AD454194B5D
S2140025D01B7843B1154B1B884A2B04D8591C134A49
S2140025E01180134AD45410BD0F4B1B781BB90E4BE9
S2140025F001221A70DDE7104824F0FCF80B4B00228D
S2140026001A80F4E70B4B1B781BB90A4B01221A7091
S214002610D1E7094824F0EEF8044B00221A80F4E7CC
S2140026200004014000840140921D0020901D0020FF
S214002630901C0020931D002094ED0200064BDA68E3
S2140026405A6102225A600023044A1370044A137027
S214002650044A1380704700BF00840140931D002089
S214002660921D0020901D002008B500F0EAF808BD75
S21400267008B50421112001F04DFA0121084800F0A8
S2140026802BFD0321074801F045FA0321064801F017
S21400269041FA0321054801F03DFA002008BD00BFBD
S2140026A030253E0002001E00030020000500240026
S2140026B000B583B0214B01225A641A6842F4807236
S2140026C01A6001A802F004FF9DF80530012B2FD9EF
S2140026D01B4B4FF41872C3F88C221A4AC3F8902288
S2140026E0194AC3F8F022194AC3F8F822184AD2F851
S2140026F0A43143F4F843C2F8A43103F0C7F900F05C
S214002700B3F803F05FF903F087F9FFF7B1FF03F0C2
S2140027106BF900F09FF800F08FF900F09DFB0BF0CE
S2140027205FFB28F04DFF04F07BF803B05DF804FB78
S2140027309DF80430022BD9D9CAE700BF00000E402E
S21400274000400E409A6F050018010004008432080D
S21400275000300E4008B50BF073FB08BD08B500F05E
S214002760A7FA00F031FB00F087F808BD08B503F0C3
S2140027701FF928F033FF08BD704708B500F040F891
S21400278008BD08B500F059F804F0D2FB0BF0C2F80B
S21400279003F008FEFFF7F1FF08BD000010B592B089
S2140027A0144C0DF12C0CA646BEE80F00ACE80F004A
S2140027B09EE807008CE807000DF1180C04F11C0ECB
S2140027C0BEE80F00ACE80F00DEF80030CCF80030B2
S2140027D00DF1080C04F130030FCB8CE80F00064B0C
S2140027E0009306AB0BAA6146044803F0C7FC12B080
S2140027F010BD00BF50F50200E01D0020401F002065
S21400280008B5FFF7CBFF08BD08B5024B186803F004
S2140028107BFD08BD401F002008B5024B186803F07A
S21400282073FD08BD401F002008B5012304220521C2
S214002830002002F0A1F9002008BD08B5FFF7F4FF5C
S21400284008BD08B5002304220521184602F094F9B5
S214002850002008BD08B50121024800F03DFCFFF746
S21400286003FF08BD00350A0008B50121014800F045
S21400287033FC08BD00350A0008B5082000F072FADF
S21400288008BDFEE708B500F087F8124A0AE01068AF
S214002890516850F8230041F82300013391688B42B9
S2140028A0F5D30C320C4B9A4201D20023F6E70B4AC2
S2140028B008E01168002041F82300013351688B427C
S2140028C0F7D30832064B9A4201D20023F6E7FDF70B
S2140028D039FC00BF104A03001C4A03001C4A0300D0
S2140028E01C4A030000487047C0175302114BD3F828
S2140028F0943003F00703023B032B0DD8DFE803F008
S214002900050F02080C4B18680BE00C4B186808E023
S2140029100B4B1868400804E0094B186801E04FF4B8
S2140029200040044BD3F80031C3F304230133B0FB5B
S214002930F3F0704700400E40C8110020C011002080
S214002940C411002008B5FFF7D1FF054BD3F80831B6
S214002950C3F308230133B0FBF3F0024B186008BD45
S21400296000400E40BC110020014B1868704700BFA5
S214002970C011002008B5064B1860064BD3F89430FB
S21400298003F00703022B00D008BDFFF7DBFFFBE7D1
S214002990C011002000400E40044B054A9A60D3F850
S2140029A0882042F47002C3F88820704700ED00E0EB
S2140029B0000000004FF4004070474FF47A707047F4
S2140029C0014B1868704700BFC8110020174B9A6A61
S2140029D002F1704303F5F813B3F5006F11D2134BF1
S2140029E0D3F82818A1F17E63A3F58433B3F5605FAE
S2140029F007D212680E4B9A4207D0002303708360FA
S214002A00704700230370836070470A68094B9A4238
S214002A10F3D101230370054BD3F82828926842604F
S214002A20D3F828389B698360704700BF0000E10F29
S214002A30AD1007B007B0CD5E08B50D4BD3F828280B
S214002A40A2F17E63A3F58433B3F5605F0DD2094B24
S214002A501B781BB1022B01D0002008E0D3699847F1
S214002A6028B9044B01221A7001E04FF4817008BDAA
S214002A700000E10F681F00204FF0005340F20222D2
S214002A801A804FF20F025A800A4A01239360136895
S214002A9023F4E06343F480631360BFF34F8F06496B
S214002AA0CA6802F4E062054B1343CB60BFF34F8F56
S214002AB000BFFDE700500E4000ED00E00400FA0500
S214002AC008B50D4BD3F82828A2F17E63A3F584330E
S214002AD0B3F5605F0AD2126BA2F17E63A3F584336E
S214002AE0B3F5605F05D29368984701E04FF48170B4
S214002AF008BD4FF48170FBE70000E10F08B50D4BF1
S214002B00D3F82828A2F17E63A3F58433B3F5605F7B
S214002B100AD2126BA2F17E63A3F58433B3F5605F2D
S214002B2005D25369984701E04FF4817008BD4FF411
S214002B308170FBE70000E10F10B50A4BD3F8284878
S214002B40A4F17E63A3F58433B3F5605F04D2236BF0
S214002B502BB15B6A984701E04FF4017010BD4FF44B
S214002B600170FBE70000E10F08B50D4BD3F82828ED
S214002B70A2F17E63A3F58433B3F5605F0AD2126BCD
S214002B80A2F17E63A3F58433B3F5605F05D2936A42
S214002B90984701E04FF4017008BD4FF40170FBE761
S214002BA00000E10F30B5E1B0124BD3F82838A3F19E
S214002BB07E63A3F58433B3F5605F15D20C464FF4FD
S214002BC0C0726946FFF7B8FF054678B921466846E1
S214002BD0FFF7CAFF40F201239842F7D040F20323E2
S214002BE0984203D0054601E04FF40175284661B0CF
S214002BF030BD00BF0000E10F10B50D4BD3F82848DC
S214002C00A4F17E63A3F58433B3F5605F0AD2246B28
S214002C10A4F17E63A3F58433B3F5605F05D2A36B9E
S214002C20984701E040F2011010BD40F20110FBE7AA
S214002C300000E10F08B50D4BD3F82828A2F17E63FB
S214002C40A3F58433B3F5605F0AD2126BA2F17E63FC
S214002C50A3F58433B3F5605F05D2D36B984701E0E4
S214002C6040F2011008BD40F20110FBE70000E10F42
S214002C7000230360704703680B600160704710B55F
S214002C8014460CF0ADFD2060002010BD0346064A39
S214002C9010680344054A934202D8034A13607047FB
S214002CA04FF0FF30704700BFCC110020000001201D
S214002CB008B50121224800F00FFA01230422022160
S214002CC0052001F059FF002001F0CCFE01211D4B2C
S214002CD0C3F810180A46042000F08CFE1A4800F0CC
S214002CE007FD1A4BD3F8F02042F00102C3F8F0209B
S214002CF0D3F8FC2042F08072C3F8FC20A3F55D43B5
S214002D00134A1A6000F5D52000F2FC40C008114BAB
S214002D10A3FB0030800A01380F4B18610222C3F86B
S214002D20F0204FF48072C3F804234FF060430B4A40
S214002D30C3F8B02F0A4AC3F8802E002008BD00BF93
S214002D4000350A000080144206000E0000ED00E088
S214002D50FF03004017916502000004E055CEACC5A5
S214002D60090001004FF06041D1F8003E0122824088
S214002D701343C1F8003E00207047000010B504461B
S214002D8002E0202007E09047DCB194FAA4F0002887
S214002D90F7D0B0FA80F00123834024EA0304094BFD
S214002DA003EB00135A68002AEED0064B03EB001321
S214002DB01B7B002BE7D0034B03EB0013996890476F
S214002DC0E2E710BD6C1F002008B5122000F0F4FFEB
S214002DD028B1084B4FF48022C3F880211A600A20DD
S214002DE000F0EAFF28B1034B4FF48062C3F880215D
S214002DF01A6008BD00E100E038B505460C4600F054
S214002E00C8FF044B03EB05135C6000221A7300F046
S214002E10C6FF38BD6C1F002008B5064BD3F8280443
S214002E20D3F81C24104000F05530C3F82404FFF7F4
S214002E30A5FF08BD00A0004008B5064BD3F828043F
S214002E40D3F81C24104000F0AA30C3F82404FFF77F
S214002E5095FF08BD00A0004008B5034B1968034B5A
S214002E6018680EF0D7FF08BDD4110020D01100203E
S214002E70B0F1FF3F01D010B97047024870470248D2
S214002E80704700BF21E000F024E000F0890800232E
S214002E9001E0043001338B4205D20268B2F1FF3FF5
S214002EA0F7D000207047012070477047F8B50546F8
S214002EB00E469400224602F071FAFFF7D9FF074645
S214002EC028B92246314628462BF012FA08B9384669
S214002ED0F8BD014FFBE700BF10E000F008B5034661
S214002EE0084613F0030F02D111F0030F0AD0920028
S214002EF019462BF00DFA002008BD53F8041B40F8C5
S214002F00041B013A002AF8D1F5E7000038B504465C
S214002F1002F0E6F9FFF7ACFF054660B9084BD3F8B8
S214002F20E4301B0E0A3303F01F03012199402046AC
S214002F30FFF7ACFF08B1284638BD024DFBE700BFDF
S214002F400081E00F0EE000F010B582B0044601A844
S214002F5002F0BEFA9DF8063023800122E270A270CD
S214002F60064BD3F8E4301B0E0A3303F01F0302FAB5
S214002F7003F36360002002B010BD00BF0081E00FC5
S214002F8008B502F005F908BD08B502F0F1F8002012
S214002F9008BD000008B500F0F5FE014B186008BD3E
S214002FA0E024002008B5024B186800F0EFFE08BDCC
S214002FB0E024002008B50A464118013903F080FADB
S214002FC008BD00000C4B984205D90C4B984210D80F
S214002FD001210A4601E000210A46094B1A64094A03
S214002FE0D2F8003123F0807343EA0163C2F800315F
S214002FF0704702210122F0E70048E8010090D00364
S2140030000000C84300400E40014B1868704700BFE0
S214003010F4110020114B5B68002300E00133042B01
S2140030200CD80F4A02EBC30292F804C0CAB2944509
S214003030F4D10B4A52F833208242EFD3052B0BD043
S214003040074A02EBC3035979044A536823F04073D6
S21400305043EA0163536070470321F5E700000E4022
S21400306004F6020003300F2828BF0F200007704721
S21400307008B5FFF73BFC044BD3F80031C3F3042339
S21400308003FB000008BD00BF00400E4038B5084BEB
S2140030901C6CA4B241F671351D64FFF723FC0021B9
S2140030A0FFF7B8FFAC4202D0014B00221A6438BDCD
S2140030B000000E4038B5074B1C6CA4B241F67135C3
S2140030C01D64FFF7A7FFAC4202D0024B00221A6431
S2140030D038BD00BF00000E4010B4C0F30323013B10
S2140030E0092B21D8DFE803F005082020302326200E
S2140030F0292D0024164A01E00024164AC0F30430A5
S21400310054B1134BD3F8443113F0010F04D1104BD4
S214003110D3F840311C42FAD102F1424303F5801342
S21400312000EBC300800001605DF8044B704701248B
S214003130094AE3E71024094AE0E74FF48034084AD6
S214003140DCE70024074AD9E70024074AD6E700BF91
S21400315000400E40C0400E40E0400E40E8400E40AA
S214003160F0400E4050410E40B0400E40C0F30313F6
S214003170013B092B6BD8DFE803F0050B111B6A6ACD
S2140031802127415F334BD3F80001C0F3042070477A
S214003190304BD3F81401C0F3042070472D4BD3F8FE
S2140031A00001C0F30060431C0120984001387047BE
S2140031B0284BD3F80C01C0F308207047254BD3F8F2
S2140031C00801C0F308207047234B984204D0234BD5
S2140031D098420AD0002070471E4BD3F8203103F0E7
S2140031E00F0301209840013870471A4BD3F820315E
S2140031F0C3F301130120984001387047184B9842DA
S21400320007D003F5B01303F5805398420AD0002088
S2140032107047104BD3F82831C3F3011301209840B0
S214003220013870470B4BD3F82801C0F30120031D6B
S21400323001209840013870470A4B984201D0002080
S2140032407047044BD3F8300100F0030070470020AD
S214003250704700BF00400E408006160080162E0005
S21400326090171A00A009140008B5FFF77FFF013079
S21400327008BD000010B50C46C0F30313013B092B34
S2140032802FD8DFE813F00A002F0039004A002E007E
S2140032902E0056007600CF001501FFF7F7FE914886
S2140032A0FFF790FE904BD3F8001121F4F85141EA55
S2140032B00421C3F80011FFF745FB8C4BDB6B13F0C2
S2140032C0400F04D18A4BD3F8C830002BFAD1874B75
S2140032D05968C1F30141FFF7EDFEFFF707FBFFF763
S2140032E071FE10BD804BD3F8141121F4F85141EA59
S2140032F00421C3F81411F4E769B1B1FA81F1C1F100
S2140033001F04794BD3F8001121F0807141EA046163
S214003310C3F80011E5E72021F1E7734BD3F80C1151
S21400332021F4FF3121F4807141EA0421C3F80C1125
S214003330D7E7FFF7ABFE6C4BD3F8081121F4FF314B
S21400334021F4807141EA0421C3F80811FFF7FAFA64
S214003350664BDB6B13F0400F04D1654BD3F8C830D7
S214003360002BFAD1614B5968C1F30141FFF7A2FE69
S214003370B7E7604B98421AD05F4B984234D05F4B09
S2140033809842AED1584BD3F8443113F0010F05D113
S214003390554BD3F8403113F4802FF9D1524BD3F864
S2140033A0301121F003012143C3F8301199E70131B0
S2140033B018D0B1FA81F3C3F11F024B4BD3F8443156
S2140033C013F0010F05D1484BD3F8403113F0040F2A
S2140033D0F9D14549D1F8203123F00F031343C1F842
S2140033E020317EE72023E6E7013119D0B1FA81F3D8
S2140033F0C3F11F023C4BD3F8443113F0010F05D143
S214003400394BD3F8403113F0040FF9D13649D1F8CF
S214003410203123F0300343EA0213C1F8203160E77D
S2140034202023E5E7364B984222D003F5B01303F588
S214003430805398427FF455AF013137D0B1FA81F30B
S214003440C3F11B02284BD3F8443113F0010F05D10A
S214003450254BD3F8403113F0400FF9D12249D1F86B
S214003460283123F4407343EA0223C1F8283138E7B1
S214003470013119D0B1FA81F3C3F11F021A4BD3F808
S214003480443113F0010F05D1174BD3F8403113F038
S214003490400FF9D11449D1F8283123F0300343EA1C
S2140034A00213C1F828311CE72023E5E72023C7E7ED
S2140034B0124B98427FF415AF0B4BD3F8443113F000
S2140034C0010F05D1084BD3F8403113F4802FF9D102
S2140034D0054BD3F8301121F003012143C3F8301116
S2140034E0FFE600BF0148E80100400E4000300E40F5
S2140034F00000C6438006160080162E00A0091400A1
S21400350090171A0000F00F000138072865D8DFE88A
S21400351000F0041B2A643E4D64553B4BD3F89430B0
S21400352003F00703023B052B0CD8DFE803F0055831
S21400353003070B0902207047042070470B207047D2
S2140035400C207047052070472F4BD3F8803003F0CF
S2140035500703022B45D0042B45D0012B01D00120B8
S214003560704703207047284BD3F8843003F00703D6
S214003570013B032B09D8DFE803F0023806040320DA
S21400358070470A20704706207047012070471E4B80
S214003590D3F8883003F00703022B28D0042B28D05A
S2140035A0012B01D00120704703207047164B1B6F7C
S2140035B013F001031FD003B309207047124BD3F852
S2140035C05C3103F03003202B19D0302B19D0102B90
S2140035D001D0012070470720704700207047032065
S2140035E07047022070470A2070470220704702206A
S2140035F070470A2070470720704701207047042054
S21400360070470820704700BF00400E4010B50446C3
S214003610FFF778FF1B4B9C4212D01B4B9C4215D0E9
S2140036201A4B9C4206D00138032828D8DFE800F061
S21400363014171D1A164BD3F8800000F00700F2E7A7
S214003640134BD3F8840000F00700ECE7104BD3F8D8
S214003650880000F00700E6E7FFF7ACF910BDFFF7BB
S214003660AFF9FBE7FFF7A9F9F8E7FFF73FF9084BD3
S214003670D3F80031C3F300630133D840EEE70020EF
S214003680ECE700BF030020000500240002001E0037
S21400369000400E4008B50748FFF734FF072804D05F
S2140036A0092805D1FFF722F903E0FFF7ADFC00E09B
S2140036B0002008BD06000E0008B10020704710B5B7
S2140036C004460A48FFF71EFF072805D0082809D039
S2140036D0042804D0204610BDFFF796FCFBE7FFF752
S2140036E043F9F8E7FFF7C4FCF5E700BFB80032007F
S2140036F038B500F47813B3F5B01F00F09380054694
S2140037003BD8B3F5402F00F0828010D9B3F5801F68
S21400371000F0AA80B3F5A01F27D15748FFF776FF21
S214003720564BD3F8303103F00303D8401CE0B3F512
S214003730802F61D005D9B3F5202F14D1FFF7D6F826
S21400374012E0002B55D0B3F5003F0AD1FFF7CEF8B4
S2140037504A4BD3F80831C3F308230133B0FBF3F028
S21400376002E0002000E0002038BDB3F5602F02D153
S214003770FFF790FFF8E70020F6E7B3F5381F5BD0B9
S2140037800ED9B3F5481F72D0B3F5781F21D1FFF7D5
S214003790ADF804462846FFF767FDB4FBF0F0E3E714
S2140037A0B3F5001F52D006D9B3F5101F0FD132481B
S2140037B0FFF72CFFD8E7B3F5D01F4BD0B3F5F01FBB
S2140037C003D12F48FFF722FFCEE70020CCE70020EA
S2140037D0CAE7B3F5401F0AD12A48FFF717FF274B61
S2140037E0D3F82831C3F301230433D840BCE70020C4
S2140037F0BAE7FFF77BF8B7E7FFF778F81F4BD3F881
S2140038000C31C3F308230133B0FBF3F0ACE7FFF74A
S2140038106DF81A4BD3F81431C3F304230133B0FB0D
S214003820F3F0A1E71648FFF7F1FE144BD3F820316A
S21400383003F00F03D84097E71148FFF7E7FE0F4B5A
S214003840D3F82031C3F30113D8408DE70D48FFF7B6
S214003850DDFE89E70B48FFF7D9FE084BD3F8283181
S214003860C3F30113D8407FE7FFF7CEFB7CE70020C9
S214003870FFF722FF78E700BF0500240000400E4057
S21400388002001E0003002000014B1868704700BFAE
S214003890C41100200138032818D8DFE800F0021110
S2140038A0070C0B4B186AC0F308007047084B1869E2
S2140038B000F07F007047064B986900F07F00704765
S2140038C0034BD3F89C00C0F30A00704700207047F3
S2140038D000400E4038B50C460138032812D8DFE801
S2140038E000F0022E1220C1F308041F4BD3F86838EC
S2140038F0002BFAD11D4A136A23F4FF7323F0010349
S2140039002343136238BD01F07F04174BD3F86038A9
S214003910002BFAD1154A136923F07F031C43146168
S214003920F0E701F07F04104BD3F86438002BFAD18F
S2140039300E4A936923F07F031C439461E2E70B4D24
S214003940D5F890306B6A23F0300343F010036B62B7
S214003950C1F3C310FFF786FB2A6B054B13402343C6
S21400396003432B63CEE700BF0020C84300400E4051
S21400397000F8FF0F134B5B6A13F0300F09D02029B5
S21400398014D0302915D009B10F4A04E04FF4400294
S21400399001E04FF440020B4BD3F8903032EA0303B9
S2140039A0F9D112F4800F07D1012070474FF40002BE
S2140039B0F1E74FF44002EEE7024BD3F8A000C0F365
S2140039C08020704700400E40FF33E13F022801D0C0
S2140039D00120704710B529B1054B4FF48064C3F839
S2140039E0A84059660AB9012010BDFFF7C3FFFBE7E0
S2140039F000400E4070B5042800F28580DFE800F035
S214003A00484250033C00022301250024AC4600290E
S214003A1067D002284AD000213B4B1D663B4B23440F
S214003A209B001B68002BF9D0002A6CD0374C6444EE
S214003A30A4002368002BF9D0022864D1002962D0A4
S214003A40314B5B6A13F0010F46D001222021FFF7AD
S214003A50BDFF0220FFF71EFF0646012200210220BE
S214003A60FFF7C8FF31460220FFF734FF264B1D66DE
S214003A702368002BFCD046E02023102504244FF0BA
S214003A80050CC4E78023402506244FF0070CBEE74C
S214003A904FF400734FF4807508244FF0090CB6E716
S214003AA00823042502244FF0030CB0E7164B5B6A8C
S214003AB013F0300F0ED1164BDB6B134B5B6A13F013
S214003AC0010FA9D0104E736A23F0300343F01003A1
S214003AD07362A1E700219FE700210220FFF74AFF5B
S214003AE0B7E709490B66084BD3F890100123A340AB
S214003AF01942F8D13AB1044BD3F89020012303FAC7
S214003B000CF31A42F7D170BD00400E408004F2104C
S214003B1000300E4070B505460C4611280CD0002625
S214003B2005F00F056B1E072B00F28780DFE803F019
S214003B301E7A1C856F9985A5042903D005290BD00C
S214003B400026EDE7FEF710FF0646002EE8D000211F
S214003B50304600F001FDE3E7FFF796FE0646604BB1
S214003B609842F2D80026DBE75E4D51E0023C0A2C74
S214003B7063D8DFE804F00644093F62626262624787
S214003B804A000020042504E05748FFF71BFA0220ED
S214003B90054601221146FFF72DFFFFF777FA4EB1D3
S214003BA0524BDB6B13F0400F04D1514BD3F8C830A7
S214003BB0002BFAD14F4B5D67FEF7C4FE0446FEF7B6
S214003BC095FEFFF7FFF9494BDB6B13F0400F04D16E
S214003BD0474BD3F8C830002BFAD1444B5968C1F391
S214003BE001412046FFF766FA3EBB0121002000F0A7
S214003BF0B3FC22E03C48FFF7E5F90320C9E70120C3
S214003C000325C6E703200525C3E70725C5E73A4D84
S214003C10013C092C11D8DFE804F007091110101830
S214003C2010101022354DF3E7002305E0012211465F
S214003C300020FFF7DFFE02232B6070BD0122114635
S214003C401046FFF7D7FE0123F6E7FEF74FFEFFF715
S214003C50B9F92B4B0122C3F808260323ECE704230B
S214003C60EAE7072C05D0092CE7D1224B01221A6778
S214003C70E3E7204B00221A67DFE7013C072CDCD87D
S214003C8001A353F824F000BFA93C00003B3C000011
S214003C903B3C0000CD3C00003B3C00003B3C0000B1
S214003CA0AD3C0000DB3C0000002105E0012211468F
S214003CB00420FFF79FFE01210E4AD2F85C3123F064
S214003CC0300343EA0113C2F85C31B6E7012211461D
S214003CD00220FFF78FFE0221EEE70321ECE700BF8C
S214003CE0002D310184400E400148E80100300E40AE
S214003CF00000C64300400E4088400E4080400E4004
S214003D000010C84370B504461120FFF7FBFB0122E4
S214003D1000210220FFF76EFE237C022B2AD0002211
S214003D20154E736A23F00103134373622278134B14
S214003D30C3F8A024A288637A43EAC223F362356BF1
S214003D4005F07F65E38845EAC325A37A1D43207AFC
S214003D5045EAC015FFF786F905433563627BA37B0A
S214003D601B0143EA0233E27B1343227B43EA02430E
S214003D70736370BD0122D3E700400E400000C843C5
S214003D8072B67047EFF3108072B6704700B962B62D
S214003D907047EFF31180602383F31188704780F338
S214003DA011887047034B5868C0F30800003818BFE6
S214003DB00120704700ED00E04209064B53F8223020
S214003DC000F01F0023FA00F080F0010000F0010070
S214003DD0704700BF00E100E030B40D684C688A68A8
S214003DE0CB68056004600260036030BC704730B486
S214003DF005680468026803680D604C608A60CB60E2
S214003E0030BC704738B504460D46FFF7E5FF05F1B0
S214003E1010012046FFF7E0FF38BD38B504460D46D2
S214003E20FFF7E5FF05F110012046FFF7E0FF38BD7C
S214003E3038B504460D46FFF7CFFF05F110012046C2
S214003E40FFF7CAFF05F120012046FFF7C5FF05F181
S214003E5030012046FFF7C0FF38BD0000114BDB6B7A
S214003E6013F0400F1DD10F4BDB6B13F0400F04D146
S214003E700D4BD3F8C830002BFAD10A4B1A68C2F3A0
S214003E8001225B68C3F301439A4205D9054A1368C9
S214003E9043F0100313607047024A136823F01003C0
S214003EA01360704700300E400000C643074B1B6887
S214003EB013F0100F05D0064B1B69C3F30443082B01
S214003EC000D07047034B044A1A60FAE700300E40F1
S214003ED000400E40C4110020C0EA21011A48C26CFE
S214003EE0C2F30322194B1B8803F1280103EB51038D
S214003EF02833013202EB8201B3FBF1F3013B072BBF
S214003F0028BF0723C16C21F0EE6141EA036343F446
S214003F108013C3640E4BB3F90030002B13DB9BB247
S214003F2003F1280103EB51032833510801EB420249
S214003F30B3FBF2F3072B28BF0723026D22F07002B3
S214003F4042EA03130365704700300E409A250020AE
S214003F509C250020024B1880024B1980704700BF3A
S214003F609A2500209C25002010B1012804D0704717
S214003F70034B044A9A657047014B034A9A6570479B
S214003F8000300E4077402057372110B71A4BD3F831
S214003F903032032929D8DFE801F002121518DBB207
S214003FA04AB91B0333F4704121D11448C16E21F481
S214003FB070411943C166012A09D001207047C3F336
S214003FC00723EDE7C3F30743EAE71B0EE8E71B0307
S214003FD033F470420DD10949D1F8E02022F4704242
S214003FE01343C1F8E03001207047002070470020DE
S214003FF070470020704700BF0081E00F00300E4081
S2140040001B02A2B101221343B3F5007F4DD022D884
S214004010B3F5807F42D00CD940F20112934215D1FD
S214004020294BD3F824321A0EC3F3074310E00022BC
S214004030E9E763B3012B06D1234BD3F82432C3F34D
S2140040400722DBB204E00022134601E000221346FA
S21400405003600A607047B3F5407F2DD040F201320E
S214004060934206D1184BD3F828321A0EC3F30743EF
S214004070EEE740F20122934206D1134BD3F82832E2
S214004080C3F30722DBB2E3E700221346E0E70E4B5A
S214004090D3F81C32C3F30722DBB2D9E70A4BD3F8B6
S2140040A01C321A0EC3F30743D2E7074BD3F820326D
S2140040B0C3F30722DBB2CBE7034BD3F820321A0E4A
S2140040C0C3F30743C4E700BF0081E00F03285CD8B2
S2140040D0DFE800F002213448334BD3F8F021C2F376
S2140040E0031C0CEB8C0C02F00F0303EB4C0CC2F31E
S2140040F0033303EB8300C2F3032303EB4003B3EB6A
S2140041000C0306D0294AB2FBF3F000FB0CFC9342EA
S2140041103ED908467047244BD3F8F021C2F3035C1F
S2140041200CEB8C0CC2F3034303EB4C0C130F03EBAA
S2140041308300C2F3036303EB4003E0E71A4BD3F8B4
S214004140F421C2F3031C0CEB8C0C02F00F0303EB00
S2140041504C0CC2F3033303EB8300C2F3032303EBDD
S2140041604003CCE7104BD3F8F421C2F3035C0CEB0E
S2140041708C0CC2F3034303EB4C0C130F03EB8300CE
S214004180C2F3036303EB4003B9E700239C46B6E79C
S214004190ACF5353CACF5247C642303FB01C101EB94
S2140041A0500CBCFBF0F070470081E00F80B50100BA
S2140041B010B5002855D0464BDB6B13F0400F07D1E7
S2140041C0444B1B78C3F1020210239340404A13610C
S2140041D0414AD2F8804104F0010445F60E03C2F8C5
S2140041E080313E4B1B6803F0010003F010010843CA
S2140041F003F04001084303F00401014303F4807315
S2140042000B431366324BDB6B13F0400F04D1344B79
S214004210D3F8C830002BFAD12D4B1B6813F0100FC3
S2140042200DD02D4BD3F8403113F0807FF9D12D4BB4
S2140042301A68294B1A612C4B1B78052B30D02A4B59
S214004240197805293FD1254B1B6813F0010F02D1C1
S214004250214B02221A661CB11F4B0022C3F8802194
S21400426010BD1D4BD3F890201C4B1A601120FFF791
S21400427049F91D4B1870164BDB6B13F0400F04D139
S214004280174BD3F8C830002BFAD1114B5B68C3F339
S2140042900143104A1370104B1A69124B1A60DFE77D
S2140042A0124B18680A4BDB6B13F0400F04D10C4B13
S2140042B0D3F8C830002BFAD1054B5968C1F3014139
S2140042C0FEF7F8FEBBE71120FFF724FCBBE700BFB4
S2140042D000300E40A525002000400E40942500200A
S2140042E00000C643A02500209E250020C411002003
S2140042F0074A136823F44073417843EA01231360A6
S2140043004378022B00D07047024B5B6AFBE700BF86
S21400431000300E4000400E40704770477047000067
S21400432038B5044608BBFFF799FD194A136943F0F0
S21400433004031361FFF7F0FFFFF7EFFF154B1B6851
S21400434013F0100F15D130BFFFF7E8FF02F07AFC2C
S214004350C4B10120FFF72CFF0E4AD2F84C3123F0EF
S2140043600043C2F84C3184B138BD0020FFF720FF6F
S214004370D9E7FFF707FD05462AF0CAFC2846FFF7EF
S21400438005FDE1E7FFF792FDE6E7FEF7DBFAEBE770
S21400439000ED00E000300E4038B5044668BBFFF77D
S2140043A05DFD1F4BD3F8802145F60E01C3F8801142
S2140043B04FF42071196612F0010F02D00022C3F8E4
S2140043C08021184A136943F004031361FFF7A4FF22
S2140043D0154B1B6813F0100F13D130BF02F032FCE0
S2140043E0C4B10120FFF7E4FE0F4AD2F84C3123F0A7
S2140043F00043C2F84C3184B138BD0020FFF7D8FE28
S214004400CDE7FFF7BFFC05462AF082FC2846FFF7FB
S214004410BDFCE3E7FFF74AFDE6E7FEF793FAEBE7B6
S21400442000400E4000ED00E000300E4008B50020D1
S214004430FFF7BEFE08BD08B50120FFF7B9FE08BDB0
S214004440134B9A6922F03F020378D3B104234178D4
S214004450C9B102210B438178B9B108210B43C17859
S214004460012900D000210B4301790B431343084A6E
S2140044709361136823F44033417943EA01431360A0
S21400448070470023E3E70021E4E70021E6E700BFEA
S21400449000300E407047704738B50D4B9C6924F4C9
S2140044A0403444F400349D6945F440354AF6E852F9
S2140044B09A60FFF7EFFFFFF7EEFF002303E0044AE2
S2140044C0946195610133032BF9DD014B9C6138BD86
S2140044D000300E401D4BDB6B13F0400F35D170B52E
S2140044E004460D46194BDB6B13F0400F04D1184BF6
S2140044F0D3F8C830002BFAD1144B5B68C3F30143E2
S2140045009C4218D0134BD3F80031FEF7EFF906465D
S214004510022C11D0C4F10202102393400B4A1361FF
S21400452045B1D36B13F0400F04D1094BD3F8C83014
S214004530002BFAD124B170BD0221FEF7BBFDE9E7DE
S21400454000213046FEF7B6FDF5E7704700300E4016
S2140045500000C64300400E4038B5114BDB6B13F02D
S214004560400F0BD10C4650B10E4B1B7813B10E4BBF
S21400457098420FD921460020FFF7ACFF38BD0B4B01
S214004580D3F80001C0F30420451CFEF7AFF905FB85
S21400459000F0E9E721460220FFF79CFFEEE700BFA8
S2140045A000300E40A4250020002D310100400E40B2
S2140045B008B50278034B1A7001210020FFF7CCFFE4
S2140045C008BD00BFA425002010B41E4B5A6B4AF647
S2140045D0E85159631B4B9B6F13F0010FFAD1194B2F
S2140045E01B6C13F0030303D017490124C1F8B44A27
S2140045F0DBB283421AD0134B9B6F13F0010FFAD134
S21400460010490B6C23F0030303430B640D4B9B6FA5
S21400461013F0010FFAD1003818BF01200A4BC3F877
S214004620B40A012A09D05DF8044B70470028FAD175
S214004630054B0022C3F8B42AF5E7024B00225A6362
S214004640F1E700BF00300E400000C6432DE9F04FF2
S2140046508DB000910192002309930A930B93069361
S21400466007930893039304930593664A1288ADF85C
S21400467008208DF80A30A0F5E163B3F5966F00F2D6
S214004680B0800646B0F5E16F8CBF4FF001094FF0E1
S21400469000096FD94FF496644FF4E165B6F5E16F03
S2140046A06DD9594BD3F8183208931A0E0592C3F3F6
S2140046B007430893DFF85481D8F84C70C7F30177A6
S2140046C08DF808703B464A4603A906A8FFF798FCF3
S2140046D0D8F8E030C3F301288DF8098043464A46EF
S2140046E004A907A8FFF78CFC721B089B0599C91A3A
S2140046F002FB01F1B1FBF4F10B9119440B91DDF8CB
S2140047000CA0DDF818C0AAEB0C0502FB05F5B5FBFE
S214004710F4F5099565440995DDF810E00798AEEBC9
S214004720000B0BFB02F2B2FBF4F40A9404440A9466
S214004730059A8A4259D38B4259D8A64559D3A042E6
S21400474059D8AA4559D3AC4559D8019B73B12F4BBC
S214004750DB6D23F4FE4323F0020343EA0123B6F5A0
S214004760E16F16D902210B43284AD365009B93B903
S214004770012037E04FF416744FF496658EE7224B0F
S214004780D3F818320893C3F307220592DBB20893D6
S21400479090E70021E7E7002239464846FFF7F6FB98
S2140047A000B3012241464846FFF7F0FBD0B1AC42C9
S2140047B038BF2C460994E72C28BFE7240994134BEE
S2140047C05B6E23F4FF7323F0010343EA4403B6F55C
S2140047D0E16F04D9012213430C4A536602E000221B
S2140047E0F9E700200DB0BDE8F08F0020FAE70020C2
S2140047F0F8E70020F6E70020F4E70020F2E70020C4
S214004800F0E700BF2CF602000081E00F00300E40FB
S21400481008B5214B1A6FDB6C13F0010F09D012F0AC
S214004820060F06D013281FD9143813281ED80823BD
S21400483023E0194BDB6C13F0010F09D112F0060FC1
S21400484006D1092814D90A38092813D8082314E0F1
S214004850114BDB6C13F001030FD012F0060F0BD1D7
S214004860272817D8082308E0042306E0102304E0CE
S214004870042302E0102300E00023013B1A0342EA6F
S21400488003220549CB6C23F47F431343CB64FFF725
S21400489025FB08BD1023F0E700300E4008B5074B97
S2140048A0D3F88039064A136F23F0070303431367D0
S2140048B0044B1888FFF7ACFF08BD00BF0000C643D6
S2140048C000300E409825002008B5084AD36E43F005
S2140048D08073D366064BD3F880391BB10420FFF7EC
S2140048E0DDFF08BD0020FFF7D9FFFAE700300E40D5
S2140048F00000C64338B50446B0F90C10C3884A2BEE
S21400490009D9B3F5FA7F33D340F6C312934232D8AF
S2140049104FF0005200E00022224BDB6C23F04053A5
S21400492023F00103002929DB01210A4313431D4A12
S214004930D364D2F8E03043F44073C2F8E030A28883
S214004940194B1A80FFF7C0FFB4F90C102089FFF747
S21400495001FBA088FFF75CFFA07BFFF705FB0122A9
S21400496011466088FFF772FE054648B9284638BDEE
S2140049704FF08052D0E74FF04052CDE70021D4E709
S214004980084AD36B43F48063D3636078FFF71CFE5A
S214004990A37A202B04D00022044BC3F89427E5E723
S2140049A00122F9E700300E40982500200000C6439B
S2140049B038B5054641680078FFF788FB0446A968C5
S2140049C02878FFF783FB2B7823BB164AA2FB041339
S2140049D0D90801EB8103A4EB43031B0443EA01530C
S2140049E0A2FB0012D20843EA023302EB8202A0EBDB
S2140049F0420243EA02232A7B6AB1042213436A7BFB
S214004A005AB108221343AA7B4AB101221343064A2D
S214004A10C2F8903038BD0022F0E70022F2E700220C
S214004A20F4E700BFCDCCCCCC00300E4003280AD82B
S214004A30DFE800F0020E0A0C064B03F1424303F5D2
S214004A4080135B0119607047034BF6E7034BF4E7EE
S214004A50034BF2E790300E4098300E409C300E40EC
S214004A6094300E40044AD2F8443423F00303034340
S214004A70C2F84434704700BF00A000402DE9F84358
S214004A800C4615461E46072A41D893004FF00F08DD
S214004A9008FA03F800FA03F7FFF774F9324AD2F877
S214004AA0001487EA010303EA08034B40C2F8003407
S214004AB0FFF76CF94FF00008072D3FD8A900032731
S214004AC08F4004F003048C40FFF75CF9264BD3F8C4
S214004AD0082454403C405440C3F80844FFF756F9B5
S214004AE0224B2B449B001E60214B2B449B009DF8C1
S214004AF020201A600123AB401B4AC2F824341D4B09
S214004B002B449B009DF824201A60BDE8F883A2F190
S214004B1008084FEA88030F2707FA03F900FA03F795
S214004B20FFF730F9104BD3F80424574007EA09077B
S214004B305740C3F80474FFF729F9BDE74FEA880821
S214004B40032707FA08F704F0030404FA08F4FFF74B
S214004B5019F9054BD3F80C2454403C405440C3F894
S214004B600C44FFF713F9BBE700A000408020851037
S214004B70A0208510402185102DE9F04704460E46FA
S214004B801F4690463AB183B300EB4001090101226B
S214004B90B2402D4B5A50072E2FD804EB44031B016E
S214004BA0DFF8AC909944B3004FF00F0A0AFA03FA04
S214004BB008FA03F5FFF7E6F8D9F8002085EA0203BD
S214004BC003EA0A035340C9F80030FFF7DFF8B8F1EC
S214004BD0000F08D177B304EB44042401012101FA45
S214004BE006F6194B1E51BDE8F08700EB400109019F
S214004BF00122B240154B5A50CDE704EB44031B018B
S214004C00DFF850909944A6F1080292004FF00F0A80
S214004C100AFA02FA08FA02F5FFF7B4F8D9F80030F3
S214004C2085EA030202EA0A025A40C9F80020FFF7A2
S214004C30ADF8CCE704EB44042401012101FA06F6A2
S214004C40024B1E51CFE700BF0CA000460CA000444C
S214004C5004A0004008A0004000E0C369C36813F445
S214004C60807FFAD17047000002B970472DE9F04105
S214004C7005460C46174603F00308036823F4407302
S214004C8003604FEA0826FFF77DF82B685E4006F4BF
S214004C9040765E402E60FFF779F82CB9134B9D42A4
S214004CA019D0134B9D421BD02B68124B13F80830BB
S214004CB003FB07F26AB1A4EBC7031344013BB3FB43
S214004CC0F2F3013B2A6812F0020F01D003B9012368
S214004CD02B61BDE8F0810848FEF70AFD0446E3E7CD
S214004CE00648FEF705FD0446DEE700BF00C00040AC
S214004CF000C4004030F602000062040000720400A7
S214004D0000F1424000F5801040010160704700004D
S214004D1038B505460C46002303640B4BC3634A783C
S214004D2082F0010200F1424303F58013DB000133F9
S214004D309B001A600B7B8A684968FFF795FF21780D
S214004D402846FFF7DDFF38BDFFFF0700AB4B984254
S214004D501AD003F58063984240F04D81A84B10B5F9
S214004D609C68426B12F4C06F10D11978082900F2C3
S214004D703A81DFE811F019003F006A008500A700BD
S214004D80C300EC0001012E019E4BE8E712F4007F01
S214004D9004D0FD225A7009221A7013E012F4806FB4
S214004DA0F9D0FE225A70F6E7618811F0100F17D07E
S214004DB02288120A02F0060242F0F002012119705F
S214004DC0C26241601A78092A40F01E8100220264FD
S214004DD093F90120012A00F00B8193F9010014E1F8
S214004DE0248804F0FE04224611F0020FE6D044F0B8
S214004DF00102E3E712F0800F16D112F0400FE1D067
S214004E004022C263628812F0100F16D112F0020F11
S214004E1018D007221A701A7904EBC2042289012AD4
S214004E20D0D108224260CDE78022C263FF225A70AA
S214004E3008221A7002224260C4E702221A70227800
S214004E40C262BFE705221A708BE712F0800F0BD103
S214004E5012F0400FB6D04022C263628812F0020FF2
S214004E600BD003221A707CE78022C263FF225A709E
S214004E7008221A7002224260A4E705221A7070E720
S214004E80618811F0100F16D02288120A02F006026E
S214004E9042F0F00211F0040F07D042F00102197937
S214004EA004EBC1042189012909D0042119700121CC
S214004EB04160C26286E7228802F0FE02EAE7082125
S214004EC04160F2E712F0800F0CD112F0400F3FF471
S214004ED079AF4022C263628812F0040F0BD007221B
S214004EE01A706FE78022C263FF225A7008221A7077
S214004EF00222426066E705221A7032E759881A795C
S214004F0004EBC20CBCF808C0614516D300215980DA
S214004F100132D2B21A71618811F0040F0AD111F071
S214004F20010F02D1012A7FF61CAF08221A70022256
S214004F30426047E703221A7013E704EBC202526886
S214004F404C1C5C80525CC26206221A703AE712F071
S214004F50800F08D112F0400F3FF434AF4022C263F6
S214004F6005221A70FDE68022C263FF225A700822CC
S214004F701A700222426025E712F0200F3FF422AF9B
S214004F8093F804E004EBCE021289C169C9B2B3F803
S214004F9002C0624508D904EBCE0464680CF1010E29
S214004FA0A3F802E004F80C1059888A4204D80822B4
S214004FB01A700222426005E704214160012A7FF64A
S214004FC001AF5988013A91427FF4FCAE0822426054
S214004FD0F8E612F4807F3FF4F5AE4FF48072C263B9
S214004FE009221A70EEE6FB225A7009221A70E9E6C8
S214004FF000225A70F1E66FF00300704700C00040D0
S214005000B4250020A8250020012010BD10B50446B8
S2140050101C4B98422BD003F58063984229D11A4B3B
S214005020A26812F0010F01D0202262604A8812F0B6
S214005030020F01D00889F8B112F0040F01D00A8AD5
S214005040EAB100221A70012058705A801A719960CD
S214005050C02363602046FFF7FFFD0C4BE363236C21
S21400506043F4FC6323642046FFF770FE10BD084B34
S214005070D6E76FF00300F9E76FF00300F6E76FF08E
S2140050800300F3E700C00040B4250020FFFF070040
S214005090A825002011B1012902D07047026170478F
S2140050A042617047436B13F0020FFBD111B101232D
S2140050B0436070470223436070470B784BB98368A0
S2140050C013F0010F05D0436B13F0020FFBD1022340
S2140050D043604B780BB14FF480538A780AB9CA689C
S2140050E022B143F40073CA6802B10261CA780AB1F9
S2140050F043F480730A790AB143F040034A790AB14F
S21400510043F080038A7943EA8203CA7943EA0213AA
S2140051100A7A134303600B784BB1836813F0010FD0
S21400512005D1436B13F0020FFBD101234360704798
S21400513011B1012902D0704782617047C261704781
S214005140436B002BFCD1704710B50446FFF7F8FF01
S2140051501E2363600023236023616361A361E36110
S214005160E3621F23A3622046FFF7EAFF10BD00009C
S214005170054B5A685B68054B41F671321A649A68AB
S21400518022F001029A60704700300E4000000E4088
S214005190034B9A6822F001029A6000221A64704754
S2140051A000000E400C4B0D4AD26912F0010F02D0DF
S2140051B00BB1013BF7E74BB1084B18610122DA60EF
S2140051C0DB6913F0040F04D1002070476FF0020073
S2140051D070474FF0FF3070478096980000000E40F2
S2140051E08C46D1B900207047DBB1114BDB6913F058
S2140051F0020F19D1614512D250F8042B0C4B9A615C
S21400520001310822DA600B4B094AD26912F0010F0D
S214005210EAD0002BE8D0013BF6E70021EAE70020C1
S21400522070476FF0020070476FF00100704700BFD4
S21400523000000E40809698002DE9F04780460E4606
S214005240254B196C1FFA81F941F67131196423490F
S21400525048684968996841F00101996097080023F9
S2140052601D4614E01C498A6822F001028A60B9F1E2
S214005270000F2DD00A460021116429E05146304621
S214005280FFF7AEFF0346C0B9554406EB8A06BD429B
S21400529013D208EB85042046FFF784FF0346002858
S2140052A0E0D1C4F30A04C4F50064A308A7EB050A1A
S2140052B0BAEB940FE2D39A46E0E707498A6822F0F1
S2140052C001028A60B9F1000F02D00A46002111647B
S2140052D01846BDE8F08700BF00000E4000300E40C4
S2140052E010B42B4B196C89B241F671321A64294AF4
S2140052F0546852689A6842F001029A601861012266
S214005300DA60DB6913F0040F0BD1214B0222DA605E
S214005310214B1F4AD26912F0010F0ED06BB1013B30
S214005320F7E71B4A936823F00103936011B1134615
S21400533000221A644FF0FF300DE0154AD26912F0D1
S214005340020F0BD1B3B1124A936823F001039360A6
S214005350E1B1002010645DF8044B70470C4A936876
S21400536023F00103936011B1134600221A646FF014
S2140053700100F0E7064A936823F00103936011B139
S214005380134600221A646FF00200E4E70020E2E70A
S21400539000000E4000300E408096980008B5FFF7DB
S2140053A04BFF08BD014B01229A60704700500E402B
S2140053B010B4184B5C68002318460BE0B2F5803F2B
S2140053C021D0154A52F83320224202D0214200D181
S2140053D010430133082B19D80F4A02EBC302516859
S2140053E00E4AD2F8E82112F0040FEAD10A4A52F81F
S2140053F03320B2F5006F06D0E0D8B2F5007F02D0B9
S214005400B2F5806FDDD141F48071DAE75DF8044BC8
S214005410704700BF00500E4034F602000040E00F18
S2140054204A790B7891F801C043EA8C0391F802C0E0
S21400543043EA8C1391F803C043EA0C1391F804C0B6
S21400544043EACC2343EA02338A7943EA42430430F0
S2140054500001014A1350704700200440014B1860B9
S214005460704700BF00008442037813B301234278DC
S2140054700AB3042213438278FAB110221343C27887
S214005480EAB120221343027943EA0223427943EA2F
S21400549002338279AAB14FF400421343C27943EA39
S2140054A00243027A7AB14FF400321343074A13607C
S2140054B070470023DBE70022DCE70022DEE700225D
S2140054C0E0E70022E9E70022EFE700BF0020044003
S2140054D00D4AD2F8E4309B0003F03C03D2F8E0100B
S2140054E0C1F381110B438370D2F8E03003F03F0321
S2140054F04370D2F8E83003F0F003D2F8EC20C2F3A1
S214005500031213430370704700FF0FE010B40B78CC
S2140055100BB902234360002343628A78CB781B04CE
S21400552043EA02638A7943EA8223CA7943EA02237A
S2140055300A7A13434A7822B3402213434A7A12B3B4
S214005540802213438A7A02B320221343CA7AF2B126
S214005550102213430A7BE2B1082213430A79D2B120
S2140055604FF400524C79C4B14FF0805C42EA0C0212
S214005570134303600B780BB1012343605DF8044BC3
S21400558070470022D9E70022DBE70022DDE7002291
S214005590DFE70022E1E70022E4E74FF0000CE5E752
S2140055A010B4147853781B0643EA8463947843EA6D
S2140055B00443D47843EA0433147943EA84235479C1
S2140055C043EA042394792343D479D4B14FF080443A
S2140055D02343147ABCB14FF000542343547AA4B149
S2140055E010242343947A94B14FF0040C43EA0C033E
S2140055F0D27A43EA02730631090143505DF8044B40
S21400560070470024E4E70024E7E70024E9E74FF0CA
S214005610000CEBE741F080018165704770B50546E8
S21400562016461C460846D1B1402C20D01BD804B3E1
S214005630202C13D1082106FB01F14B0803EB401385
S214005640B3FBF1F3203B0C4A02EAC3032A6822F0BC
S21400565060022A602A6814432C606B6170BD07489C
S214005660FEF746F8E0E7602CF8D10421E3E70621D0
S214005670E1E71021DFE700BFF8FF7F0040410500AB
S214005680CB435B0003F00A03C360C16070470000B1
S21400569040F6AA63C3600023036041F2050242603D
S2140056A083604361C3640F4A82640366436783670B
S2140056B0C3670D4B984207D003F58063984203D02A
S2140056C003F58063984201D10023036500238365B8
S2140056D003F1804303F58233984200D070470023DD
S2140056E0C365FBE7F9FF01000000014038B5054639
S2140056F00C46FFF7CDFFA37C1BB12B6843F080431D
S2140057002B60E37C002B2CD1637B228A1343E28937
S21400571013436B60237BA26861682846FFF77EFF11
S214005720637D1BB12B6843F480332B60A37D1BB1D4
S2140057302B6843F400432B60E37D1B0703F0E04334
S214005740227E120502F4E00213432B666B6F23F0F1
S21400575030036B676B6F627E13436B672378EB6077
S21400576038BD217D2846FFF755FFCDE7036913F0C6
S214005770800FFBD0C069C0B27047036913F0400FBA
S214005780FBD041637047036813F0100F15D1002358
S21400579000E00133826812F0010F03D047F22F5267
S2140057A09342F6DD036803F001038B4205D000F157
S2140057B0424000F58010400101607047036813F016
S2140057C0010F09D0836813F0020F05D1836813F028
S2140057D0010FFBD10123436070470B78002B3BD0B1
S2140057E001234A78002A39D0022213438A78002AF5
S2140057F036D04FF080421343CA789AB3042213433C
S2140058000A798AB3082213434A797AB320221343CB
S2140058108A796AB340221343CA795AB310221343D3
S2140058200A7A43EA02334A7A43EA02230A7B1AB325
S2140058304FF0004213438A7A43EA0243C97A43EAA6
S21400584001610023826812F0010F17D047F22F5231
S214005850934213DC0133F5E70023C2E70022C4E7D6
S2140058600022C8E70022CAE70022CCE70022CEE7E3
S2140058700022D0E70022D2E70022DBE70160704773
S21400588038B504460DF01AF8054DA446BCE80F00DE
S2140058900FC59CE80F0085E80F00002038BD00BF4C
S2140058A0C025002047F6FF739A4277D0022977D8A2
S2140058B070B53D4B03EBC1008078012838BF01204E
